{
  "address": "0xC56923CFaB78C785fA49B182dF4a9eeB54663113",
  "abi": [
    {
      "inputs": [
        {
          "internalType": "contract IERC20",
          "name": "_dai",
          "type": "address"
        },
        {
          "internalType": "contract IERC20",
          "name": "_usdt",
          "type": "address"
        },
        {
          "internalType": "contract IERC20",
          "name": "_usdc",
          "type": "address"
        },
        {
          "internalType": "contract AggregatorV3Interface",
          "name": "_oracleEth",
          "type": "address"
        },
        {
          "internalType": "contract AggregatorV3Interface",
          "name": "_oracleDai",
          "type": "address"
        },
        {
          "internalType": "contract AggregatorV3Interface",
          "name": "_oracleUsdt",
          "type": "address"
        },
        {
          "internalType": "contract AggregatorV3Interface",
          "name": "_oracleUsdc",
          "type": "address"
        },
        {
          "internalType": "contract IOffscriptNFT",
          "name": "_nft",
          "type": "address"
        },
        {
          "internalType": "uint16",
          "name": "_basePrice",
          "type": "uint16"
        },
        {
          "internalType": "uint16",
          "name": "_extendedPrice",
          "type": "uint16"
        },
        {
          "internalType": "uint16",
          "name": "_supply",
          "type": "uint16"
        }
      ],
      "stateMutability": "nonpayable",
      "type": "constructor"
    },
    {
      "anonymous": false,
      "inputs": [
        {
          "indexed": true,
          "internalType": "address",
          "name": "previousOwner",
          "type": "address"
        },
        {
          "indexed": true,
          "internalType": "address",
          "name": "newOwner",
          "type": "address"
        }
      ],
      "name": "OwnershipTransferred",
      "type": "event"
    },
    {
      "anonymous": false,
      "inputs": [
        {
          "indexed": true,
          "internalType": "address",
          "name": "payer",
          "type": "address"
        },
        {
          "indexed": true,
          "internalType": "uint256",
          "name": "nftId",
          "type": "uint256"
        },
        {
          "indexed": true,
          "internalType": "address",
          "name": "tokenId",
          "type": "address"
        },
        {
          "indexed": false,
          "internalType": "bool",
          "name": "extended",
          "type": "bool"
        },
        {
          "indexed": false,
          "internalType": "uint256",
          "name": "amount",
          "type": "uint256"
        }
      ],
      "name": "Payment",
      "type": "event"
    },
    {
      "anonymous": false,
      "inputs": [
        {
          "indexed": false,
          "internalType": "uint256",
          "name": "newSupply",
          "type": "uint256"
        }
      ],
      "name": "SupplyUpdated",
      "type": "event"
    },
    {
      "inputs": [],
      "name": "basePrice",
      "outputs": [
        {
          "internalType": "uint16",
          "name": "",
          "type": "uint16"
        }
      ],
      "stateMutability": "view",
      "type": "function"
    },
    {
      "inputs": [],
      "name": "dai",
      "outputs": [
        {
          "internalType": "contract IERC20",
          "name": "",
          "type": "address"
        }
      ],
      "stateMutability": "view",
      "type": "function"
    },
    {
      "inputs": [],
      "name": "extendedPrice",
      "outputs": [
        {
          "internalType": "uint16",
          "name": "",
          "type": "uint16"
        }
      ],
      "stateMutability": "view",
      "type": "function"
    },
    {
      "inputs": [
        {
          "internalType": "address",
          "name": "token",
          "type": "address"
        },
        {
          "internalType": "uint256",
          "name": "tokenId",
          "type": "uint256"
        },
        {
          "internalType": "bool",
          "name": "_extended",
          "type": "bool"
        }
      ],
      "name": "getPriceERC20",
      "outputs": [
        {
          "internalType": "uint256",
          "name": "",
          "type": "uint256"
        }
      ],
      "stateMutability": "view",
      "type": "function"
    },
    {
      "inputs": [
        {
          "internalType": "uint256",
          "name": "tokenId",
          "type": "uint256"
        },
        {
          "internalType": "bool",
          "name": "_extended",
          "type": "bool"
        }
      ],
      "name": "getPriceEth",
      "outputs": [
        {
          "internalType": "uint256",
          "name": "",
          "type": "uint256"
        }
      ],
      "stateMutability": "view",
      "type": "function"
    },
    {
      "inputs": [
        {
          "internalType": "uint256",
          "name": "tokenId",
          "type": "uint256"
        },
        {
          "internalType": "bool",
          "name": "_extended",
          "type": "bool"
        }
      ],
      "name": "getPriceUSD",
      "outputs": [
        {
          "internalType": "uint256",
          "name": "",
          "type": "uint256"
        }
      ],
      "stateMutability": "view",
      "type": "function"
    },
    {
      "inputs": [],
      "name": "nft",
      "outputs": [
        {
          "internalType": "contract IOffscriptNFT",
          "name": "",
          "type": "address"
        }
      ],
      "stateMutability": "view",
      "type": "function"
    },
    {
      "inputs": [
        {
          "internalType": "address",
          "name": "",
          "type": "address"
        }
      ],
      "name": "oracles",
      "outputs": [
        {
          "internalType": "contract AggregatorV3Interface",
          "name": "",
          "type": "address"
        }
      ],
      "stateMutability": "view",
      "type": "function"
    },
    {
      "inputs": [],
      "name": "owner",
      "outputs": [
        {
          "internalType": "address",
          "name": "",
          "type": "address"
        }
      ],
      "stateMutability": "view",
      "type": "function"
    },
    {
      "inputs": [
        {
          "internalType": "address",
          "name": "_token",
          "type": "address"
        },
        {
          "internalType": "uint256",
          "name": "tokenId",
          "type": "uint256"
        },
        {
          "internalType": "bool",
          "name": "_extended",
          "type": "bool"
        }
      ],
      "name": "payWithERC20",
      "outputs": [],
      "stateMutability": "nonpayable",
      "type": "function"
    },
    {
      "inputs": [
        {
          "internalType": "uint256",
          "name": "tokenId",
          "type": "uint256"
        },
        {
          "internalType": "bool",
          "name": "_extended",
          "type": "bool"
        }
      ],
      "name": "payWithEth",
      "outputs": [],
      "stateMutability": "payable",
      "type": "function"
    },
    {
      "inputs": [],
      "name": "remainingSupply",
      "outputs": [
        {
          "internalType": "uint16",
          "name": "",
          "type": "uint16"
        }
      ],
      "stateMutability": "view",
      "type": "function"
    },
    {
      "inputs": [],
      "name": "renounceOwnership",
      "outputs": [],
      "stateMutability": "nonpayable",
      "type": "function"
    },
    {
      "inputs": [
        {
          "internalType": "uint16",
          "name": "_newSupply",
          "type": "uint16"
        }
      ],
      "name": "setSupply",
      "outputs": [],
      "stateMutability": "nonpayable",
      "type": "function"
    },
    {
      "inputs": [],
      "name": "sold",
      "outputs": [
        {
          "internalType": "uint16",
          "name": "",
          "type": "uint16"
        }
      ],
      "stateMutability": "view",
      "type": "function"
    },
    {
      "inputs": [],
      "name": "supply",
      "outputs": [
        {
          "internalType": "uint16",
          "name": "",
          "type": "uint16"
        }
      ],
      "stateMutability": "view",
      "type": "function"
    },
    {
      "inputs": [],
      "name": "sweep",
      "outputs": [],
      "stateMutability": "nonpayable",
      "type": "function"
    },
    {
      "inputs": [
        {
          "internalType": "address",
          "name": "newOwner",
          "type": "address"
        }
      ],
      "name": "transferOwnership",
      "outputs": [],
      "stateMutability": "nonpayable",
      "type": "function"
    },
    {
      "inputs": [],
      "name": "usdc",
      "outputs": [
        {
          "internalType": "contract IERC20",
          "name": "",
          "type": "address"
        }
      ],
      "stateMutability": "view",
      "type": "function"
    },
    {
      "inputs": [],
      "name": "usdt",
      "outputs": [
        {
          "internalType": "contract IERC20",
          "name": "",
          "type": "address"
        }
      ],
      "stateMutability": "view",
      "type": "function"
    },
    {
      "inputs": [
        {
          "internalType": "uint256",
          "name": "",
          "type": "uint256"
        }
      ],
      "name": "used",
      "outputs": [
        {
          "internalType": "bool",
          "name": "",
          "type": "bool"
        }
      ],
      "stateMutability": "view",
      "type": "function"
    }
  ],
  "transactionHash": "0x1524ca807176fcf185e6f3ecd12c15ea1e6ee553ff6419cb91bfc9d692b48536",
  "args": [
    "0x6B175474E89094C44Da98b954EedeAC495271d0F",
    "0xdAC17F958D2ee523a2206206994597C13D831ec7",
    "0xA0b86991c6218b36c1d19D4a2e9Eb0cE3606eB48",
    "0x5f4eC3Df9cbd43714FE2740f5E3616155c5b8419",
    "0xAed0c38402a5d19df6E4c03F4E2DceD6e29c1ee9",
    "0x3E7d1eAB13ad0104d2750B8863b489D65364e32D",
    "0x8fFfFfd4AfB6115b954Bd326cbe7B4BA576818f6",
    "0xe943A95D7aEB81aa7431d49e2Df048989C10FB70",
    800,
    950,
    56
  ],
  "numDeployments": 1,
  "solcInputHash": "f1961db3c2ed8d187fc90d6aa69eb90a",
  "bytecode": "0x60806040523480156200001157600080fd5b5060405162002030380380620020308339810160408190526200003491620002a4565b6200003f3362000223565b6001600160a01b038b166200005357600080fd5b6001600160a01b038a166200006757600080fd5b6001600160a01b0389166200007b57600080fd5b6001600160a01b0388166200008f57600080fd5b6001600160a01b038616620000a357600080fd5b6001600160a01b038716620000b757600080fd5b6001600160a01b038516620000cb57600080fd5b600480546001600160a01b038087166001600160a01b0319928316178355600180548f83169084168117909155600280548f84169085168117909155600380548f8516908616811790915560056020527f05b8ccbb9d4d8fb16ea74ce3c29a41f1b461fbdaff4714a0d9a8eb05499746bc80548f86169087161790556000928352604080842080548f871690881617905591835281832080548d86169087161790558252908190208054928a169290931691909117909155815461ffff848116600160c01b0261ffff60c01b19878316600160b01b0261ffff60b01b19938a16600160a01b029390931663ffffffff60a01b1990941693909317919091179190911617909155517fea4bfee7f9fb38136c61cc04b6e56efc93eaf1beef326dbc47495b358385914c906200020a90839061ffff91909116815260200190565b60405180910390a150505050505050505050506200039e565b600080546001600160a01b038381166001600160a01b0319831681178455604051919092169283917f8be0079c531659141344cd1fd0a4f28419497f9722a3daafe3b4186f6b6457e09190a35050565b6001600160a01b03811681146200028957600080fd5b50565b805161ffff811681146200029f57600080fd5b919050565b60008060008060008060008060008060006101608c8e031215620002c757600080fd5b8b51620002d48162000273565b60208d0151909b50620002e78162000273565b60408d0151909a50620002fa8162000273565b60608d01519099506200030d8162000273565b60808d0151909850620003208162000273565b60a08d0151909750620003338162000273565b60c08d0151909650620003468162000273565b60e08d0151909550620003598162000273565b93506200036a6101008d016200028c565b92506200037b6101208d016200028c565b91506200038c6101408d016200028c565b90509295989b509295989b9093969950565b611c8280620003ae6000396000f3fe60806040526004361061013a5760003560e01c80633e413bee116100bb578063addd50991161007f578063da0239a611610059578063da0239a6146103d8578063f2fde38b146103ed578063f4b9fa751461040d57600080fd5b8063addd509914610360578063c1ee414814610396578063c7876ea4146103b657600080fd5b80633e413bee146102cd57806347ccca02146102ed57806359d4bc431461030d578063715018a61461032d5780638da5cb5b1461034257600080fd5b80632560a730116101025780632560a730146102105780632e929f901461023e5780632f48ab7d1461026057806335faa416146102985780633d443a66146102ad57600080fd5b8063020fe6e51461013f57806302c7e7af14610184578063047fc9aa146101b95780630f2ee0b1146101db5780630f860f2a146101fd575b600080fd5b34801561014b57600080fd5b5061016f61015a36600461174b565b60066020526000908152604090205460ff1681565b60405190151581526020015b60405180910390f35b34801561019057600080fd5b506004546101a690600160d01b900461ffff1681565b60405161ffff909116815260200161017b565b3480156101c557600080fd5b506004546101a690600160c01b900461ffff1681565b3480156101e757600080fd5b506101fb6101f6366004611764565b61042d565b005b6101fb61020b366004611796565b6104e2565b34801561021c57600080fd5b5061023061022b3660046117db565b610775565b60405190815260200161017b565b34801561024a57600080fd5b506004546101a690600160b01b900461ffff1681565b34801561026c57600080fd5b50600254610280906001600160a01b031681565b6040516001600160a01b03909116815260200161017b565b3480156102a457600080fd5b506101fb610996565b3480156102b957600080fd5b506102306102c8366004611796565b610d0e565b3480156102d957600080fd5b50600354610280906001600160a01b031681565b3480156102f957600080fd5b50600454610280906001600160a01b031681565b34801561031957600080fd5b50610230610328366004611796565b610d7b565b34801561033957600080fd5b506101fb610f40565b34801561034e57600080fd5b506000546001600160a01b0316610280565b34801561036c57600080fd5b5061028061037b36600461181d565b6005602052600090815260409020546001600160a01b031681565b3480156103a257600080fd5b506101fb6103b13660046117db565b610fa4565b3480156103c257600080fd5b506004546101a690600160a01b900461ffff1681565b3480156103e457600080fd5b506101a6611253565b3480156103f957600080fd5b506101fb61040836600461181d565b61129f565b34801561041957600080fd5b50600154610280906001600160a01b031681565b6000546001600160a01b0316331461048c5760405162461bcd60e51b815260206004820181905260248201527f4f776e61626c653a2063616c6c6572206973206e6f7420746865206f776e657260448201526064015b60405180910390fd5b6004805461ffff60c01b1916600160c01b61ffff8416908102919091179091556040519081527fea4bfee7f9fb38136c61cc04b6e56efc93eaf1beef326dbc47495b358385914c9060200160405180910390a150565b60045461ffff600160c01b82048116600160d01b909204161061053e5760405162461bcd60e51b81526020600482015260146024820152736e6f207469636b65747320617661696c61626c6560601b6044820152606401610483565b811561066857600480546040516331a9108f60e11b815291820184905233916001600160a01b0390911690636352211e90602401602060405180830381865afa15801561058f573d6000803e3d6000fd5b505050506040513d601f19601f820116820180604052508101906105b3919061183a565b6001600160a01b0316146105fc5760405162461bcd60e51b815260206004820152601060248201526f34b9903737ba103a34329037bbb732b960811b6044820152606401610483565b60008281526006602052604090205460ff161561064e5760405162461bcd60e51b815260206004820152601060248201526f1b999d08185b1c9958591e481d5cd95960821b6044820152606401610483565b6000828152600660205260409020805460ff191660011790555b60006106748383610d7b565b9050803410156106b85760405162461bcd60e51b815260206004820152600f60248201526e1b9bdd08195b9bdd59da081cd95b9d608a1b6044820152606401610483565b60048054600160d01b900461ffff1690601a6106d38361186d565b91906101000a81548161ffff021916908361ffff160217905550508034111561072e57336108fc610704833461188f565b6040518115909202916000818181858888f1935050505015801561072c573d6000803e3d6000fd5b505b60408051831515815260208101839052600091859133917fdc112af79b19520d74f4a24078a4c70046e72272b75e5446143861f54e9aa18c910160405180910390a4505050565b6001600160a01b03808416600081815260056020908152604080832054815163313ce56760e01b81529151939516938593909263313ce56792600480820193918290030181865afa1580156107ce573d6000803e3d6000fd5b505050506040513d601f19601f820116820180604052508101906107f291906118bc565b60ff1690506000826001600160a01b031663feaf968c6040518163ffffffff1660e01b815260040160a060405180830381865afa158015610837573d6000803e3d6000fd5b505050506040513d601f19601f8201168201806040525081019061085b91906118f1565b505050915050600061086d8787610d0e565b9050836001600160a01b031663313ce5676040518163ffffffff1660e01b8152600401602060405180830381865afa1580156108ad573d6000803e3d6000fd5b505050506040513d601f19601f820116820180604052508101906108d191906118bc565b6108dc90600a611a25565b6108e784600a611a34565b83866001600160a01b031663313ce5676040518163ffffffff1660e01b8152600401602060405180830381865afa158015610926573d6000803e3d6000fd5b505050506040513d601f19601f8201168201806040525081019061094a91906118bc565b610955906002611a40565b61096090600a611a25565b61096a9085611a61565b6109749190611a80565b61097e9190611a61565b6109889190611a80565b9450505050505b9392505050565b6000546001600160a01b031633146109f05760405162461bcd60e51b815260206004820181905260248201527f4f776e61626c653a2063616c6c6572206973206e6f7420746865206f776e65726044820152606401610483565b6001546040516370a0823160e01b81523060048201526000916001600160a01b0316906370a0823190602401602060405180830381865afa158015610a39573d6000803e3d6000fd5b505050506040513d601f19601f82011682018060405250810190610a5d9190611aa2565b1115610ae8576001546040516370a0823160e01b8152306004820152610ae89133916001600160a01b03909116906370a0823190602401602060405180830381865afa158015610ab1573d6000803e3d6000fd5b505050506040513d601f19601f82011682018060405250810190610ad59190611aa2565b6001546001600160a01b03169190611367565b6002546040516370a0823160e01b81523060048201526000916001600160a01b0316906370a0823190602401602060405180830381865afa158015610b31573d6000803e3d6000fd5b505050506040513d601f19601f82011682018060405250810190610b559190611aa2565b1115610be0576002546040516370a0823160e01b8152306004820152610be09133916001600160a01b03909116906370a0823190602401602060405180830381865afa158015610ba9573d6000803e3d6000fd5b505050506040513d601f19601f82011682018060405250810190610bcd9190611aa2565b6002546001600160a01b03169190611367565b6003546040516370a0823160e01b81523060048201526000916001600160a01b0316906370a0823190602401602060405180830381865afa158015610c29573d6000803e3d6000fd5b505050506040513d601f19601f82011682018060405250810190610c4d9190611aa2565b1115610cd8576003546040516370a0823160e01b8152306004820152610cd89133916001600160a01b03909116906370a0823190602401602060405180830381865afa158015610ca1573d6000803e3d6000fd5b505050506040513d601f19601f82011682018060405250810190610cc59190611aa2565b6003546001600160a01b03169190611367565b4715610d0c5760405133904780156108fc02916000818181858888f19350505050158015610d0a573d6000803e3d6000fd5b505b565b60008082610d2957600454600160a01b900461ffff16610d38565b600454600160b01b900461ffff165b61ffff1690506000610d49856113cf565b905060006064610d598385611a61565b610d639190611a80565b9050610d6f818461188f565b93505050505b92915050565b600080805260056020527f05b8ccbb9d4d8fb16ea74ce3c29a41f1b461fbdaff4714a0d9a8eb05499746bc5460408051633fabe5a360e21b815290516001600160a01b03909216918391839163feaf968c9160048082019260a0929091908290030181865afa158015610df2573d6000803e3d6000fd5b505050506040513d601f19601f82011682018060405250810190610e1691906118f1565b5050509150506000610e288686610d0e565b9050826001600160a01b031663313ce5676040518163ffffffff1660e01b8152600401602060405180830381865afa158015610e68573d6000803e3d6000fd5b505050506040513d601f19601f82011682018060405250810190610e8c91906118bc565b610e9790600a611a25565b82846001600160a01b031663313ce5676040518163ffffffff1660e01b8152600401602060405180830381865afa158015610ed6573d6000803e3d6000fd5b505050506040513d601f19601f82011682018060405250810190610efa91906118bc565b610f05906002611a40565b610f1090600a611a25565b610f1a9084611a61565b610f249190611a80565b610f3690670de0b6b3a7640000611a61565b610d6f9190611a80565b6000546001600160a01b03163314610f9a5760405162461bcd60e51b815260206004820181905260248201527f4f776e61626c653a2063616c6c6572206973206e6f7420746865206f776e65726044820152606401610483565b610d0c600061145d565b60045461ffff600160c01b82048116600160d01b90920416106110005760405162461bcd60e51b81526020600482015260146024820152736e6f207469636b65747320617661696c61626c6560601b6044820152606401610483565b6001600160a01b03831661101357600080fd5b6001600160a01b0380841660009081526005602052604090205416806110715760405162461bcd60e51b81526020600482015260136024820152721d1bdad95b881b9bdd081cdd5c1c1bdc9d1959606a1b6044820152606401610483565b821561119b57600480546040516331a9108f60e11b815291820185905233916001600160a01b0390911690636352211e90602401602060405180830381865afa1580156110c2573d6000803e3d6000fd5b505050506040513d601f19601f820116820180604052508101906110e6919061183a565b6001600160a01b03161461112f5760405162461bcd60e51b815260206004820152601060248201526f34b9903737ba103a34329037bbb732b960811b6044820152606401610483565b60008381526006602052604090205460ff16156111815760405162461bcd60e51b815260206004820152601060248201526f1b999d08185b1c9958591e481d5cd95960821b6044820152606401610483565b6000838152600660205260409020805460ff191660011790555b60006111a8858585610775565b60048054919250600160d01b90910461ffff1690601a6111c78361186d565b91906101000a81548161ffff021916908361ffff16021790555050611202333083886001600160a01b03166114ba909392919063ffffffff16565b604080518415158152602081018390526001600160a01b03871691869133917fdc112af79b19520d74f4a24078a4c70046e72272b75e5446143861f54e9aa18c910160405180910390a45050505050565b60045460009061ffff600160c01b82048116600160d01b90920416106112795750600090565b60045461129a9061ffff600160d01b8204811691600160c01b900416611abb565b905090565b6000546001600160a01b031633146112f95760405162461bcd60e51b815260206004820181905260248201527f4f776e61626c653a2063616c6c6572206973206e6f7420746865206f776e65726044820152606401610483565b6001600160a01b03811661135e5760405162461bcd60e51b815260206004820152602660248201527f4f776e61626c653a206e6577206f776e657220697320746865207a65726f206160448201526564647265737360d01b6064820152608401610483565b610d0a8161145d565b6040516001600160a01b0383166024820152604481018290526113ca90849063a9059cbb60e01b906064015b60408051601f198184030181529190526020810180516001600160e01b03166001600160e01b0319909316929092179091526114f8565b505050565b6000816113de57506000919050565b6004805460405163295d33a960e21b81529182018490526000916001600160a01b039091169063a574cea490602401600060405180830381865afa15801561142a573d6000803e3d6000fd5b505050506040513d6000823e601f3d908101601f191682016040526114529190810190611b20565b5060ff169392505050565b600080546001600160a01b0383811673ffffffffffffffffffffffffffffffffffffffff19831681178455604051919092169283917f8be0079c531659141344cd1fd0a4f28419497f9722a3daafe3b4186f6b6457e09190a35050565b6040516001600160a01b03808516602483015283166044820152606481018290526114f29085906323b872dd60e01b90608401611393565b50505050565b600061154d826040518060400160405280602081526020017f5361666545524332303a206c6f772d6c6576656c2063616c6c206661696c6564815250856001600160a01b03166115ca9092919063ffffffff16565b8051909150156113ca578080602001905181019061156b9190611be0565b6113ca5760405162461bcd60e51b815260206004820152602a60248201527f5361666545524332303a204552433230206f7065726174696f6e20646964206e6044820152691bdd081cdd58d8d9595960b21b6064820152608401610483565b60606115d984846000856115e1565b949350505050565b6060824710156116425760405162461bcd60e51b815260206004820152602660248201527f416464726573733a20696e73756666696369656e742062616c616e636520666f6044820152651c8818d85b1b60d21b6064820152608401610483565b6001600160a01b0385163b6116995760405162461bcd60e51b815260206004820152601d60248201527f416464726573733a2063616c6c20746f206e6f6e2d636f6e74726163740000006044820152606401610483565b600080866001600160a01b031685876040516116b59190611bfd565b60006040518083038185875af1925050503d80600081146116f2576040519150601f19603f3d011682016040523d82523d6000602084013e6116f7565b606091505b5091509150611707828286611712565b979650505050505050565b6060831561172157508161098f565b8251156117315782518084602001fd5b8160405162461bcd60e51b81526004016104839190611c19565b60006020828403121561175d57600080fd5b5035919050565b60006020828403121561177657600080fd5b813561ffff8116811461098f57600080fd5b8015158114610d0a57600080fd5b600080604083850312156117a957600080fd5b8235915060208301356117bb81611788565b809150509250929050565b6001600160a01b0381168114610d0a57600080fd5b6000806000606084860312156117f057600080fd5b83356117fb816117c6565b925060208401359150604084013561181281611788565b809150509250925092565b60006020828403121561182f57600080fd5b813561098f816117c6565b60006020828403121561184c57600080fd5b815161098f816117c6565b634e487b7160e01b600052601160045260246000fd5b600061ffff8083168181141561188557611885611857565b6001019392505050565b6000828210156118a1576118a1611857565b500390565b805160ff811681146118b757600080fd5b919050565b6000602082840312156118ce57600080fd5b61098f826118a6565b805169ffffffffffffffffffff811681146118b757600080fd5b600080600080600060a0868803121561190957600080fd5b611912866118d7565b9450602086015193506040860151925060608601519150611935608087016118d7565b90509295509295909350565b600181815b8085111561197c57816000190482111561196257611962611857565b8085161561196f57918102915b93841c9390800290611946565b509250929050565b60008261199357506001610d75565b816119a057506000610d75565b81600181146119b657600281146119c0576119dc565b6001915050610d75565b60ff8411156119d1576119d1611857565b50506001821b610d75565b5060208310610133831016604e8410600b84101617156119ff575081810a610d75565b611a098383611941565b8060001904821115611a1d57611a1d611857565b029392505050565b600061098f60ff841683611984565b600061098f8383611984565b600060ff821660ff84168160ff0481118215151615611a1d57611a1d611857565b6000816000190483118215151615611a7b57611a7b611857565b500290565b600082611a9d57634e487b7160e01b600052601260045260246000fd5b500490565b600060208284031215611ab457600080fd5b5051919050565b600061ffff83811690831681811015611ad657611ad6611857565b039392505050565b634e487b7160e01b600052604160045260246000fd5b60005b83811015611b0f578181015183820152602001611af7565b838111156114f25750506000910152565b60008060408385031215611b3357600080fd5b611b3c836118a6565b9150602083015167ffffffffffffffff80821115611b5957600080fd5b818501915085601f830112611b6d57600080fd5b815181811115611b7f57611b7f611ade565b604051601f8201601f19908116603f01168101908382118183101715611ba757611ba7611ade565b81604052828152886020848701011115611bc057600080fd5b611bd1836020830160208801611af4565b80955050505050509250929050565b600060208284031215611bf257600080fd5b815161098f81611788565b60008251611c0f818460208701611af4565b9190910192915050565b6020815260008251806020840152611c38816040850160208701611af4565b601f01601f1916919091016040019291505056fea2646970667358221220a2dd25edc06144502082625c8480b50185a1406e22a4afa43861ac992025f75864736f6c634300080b0033",
  "devdoc": {
    "kind": "dev",
    "methods": {
      "owner()": {
        "details": "Returns the address of the current owner."
      },
      "renounceOwnership()": {
        "details": "Leaves the contract without owner. It will not be possible to call `onlyOwner` functions anymore. Can only be called by the current owner. NOTE: Renouncing ownership will leave the contract without an owner, thereby removing any functionality that is only available to the owner."
      },
      "transferOwnership(address)": {
        "details": "Transfers ownership of the contract to a new account (`newOwner`). Can only be called by the current owner."
      }
    },
    "version": 1
  },
  "userdoc": {
    "kind": "user",
    "methods": {},
    "version": 1
  },
  "storageLayout": {
    "storage": [
      {
        "astId": 53,
        "contract": "contracts/OffscriptPayment.sol:OffscriptPayment",
        "label": "_owner",
        "offset": 0,
        "slot": "0",
        "type": "t_address"
      },
      {
        "astId": 3443,
        "contract": "contracts/OffscriptPayment.sol:OffscriptPayment",
        "label": "dai",
        "offset": 0,
        "slot": "1",
        "type": "t_contract(IERC20)816"
      },
      {
        "astId": 3446,
        "contract": "contracts/OffscriptPayment.sol:OffscriptPayment",
        "label": "usdt",
        "offset": 0,
        "slot": "2",
        "type": "t_contract(IERC20)816"
      },
      {
        "astId": 3449,
        "contract": "contracts/OffscriptPayment.sol:OffscriptPayment",
        "label": "usdc",
        "offset": 0,
        "slot": "3",
        "type": "t_contract(IERC20)816"
      },
      {
        "astId": 3452,
        "contract": "contracts/OffscriptPayment.sol:OffscriptPayment",
        "label": "nft",
        "offset": 0,
        "slot": "4",
        "type": "t_contract(IOffscriptNFT)2795"
      },
      {
        "astId": 3458,
        "contract": "contracts/OffscriptPayment.sol:OffscriptPayment",
        "label": "basePrice",
        "offset": 20,
        "slot": "4",
        "type": "t_uint16"
      },
      {
        "astId": 3460,
        "contract": "contracts/OffscriptPayment.sol:OffscriptPayment",
        "label": "extendedPrice",
        "offset": 22,
        "slot": "4",
        "type": "t_uint16"
      },
      {
        "astId": 3462,
        "contract": "contracts/OffscriptPayment.sol:OffscriptPayment",
        "label": "supply",
        "offset": 24,
        "slot": "4",
        "type": "t_uint16"
      },
      {
        "astId": 3464,
        "contract": "contracts/OffscriptPayment.sol:OffscriptPayment",
        "label": "sold",
        "offset": 26,
        "slot": "4",
        "type": "t_uint16"
      },
      {
        "astId": 3469,
        "contract": "contracts/OffscriptPayment.sol:OffscriptPayment",
        "label": "oracles",
        "offset": 0,
        "slot": "5",
        "type": "t_mapping(t_address,t_contract(AggregatorV3Interface)45)"
      },
      {
        "astId": 3473,
        "contract": "contracts/OffscriptPayment.sol:OffscriptPayment",
        "label": "used",
        "offset": 0,
        "slot": "6",
        "type": "t_mapping(t_uint256,t_bool)"
      }
    ],
    "types": {
      "t_address": {
        "encoding": "inplace",
        "label": "address",
        "numberOfBytes": "20"
      },
      "t_bool": {
        "encoding": "inplace",
        "label": "bool",
        "numberOfBytes": "1"
      },
      "t_contract(AggregatorV3Interface)45": {
        "encoding": "inplace",
        "label": "contract AggregatorV3Interface",
        "numberOfBytes": "20"
      },
      "t_contract(IERC20)816": {
        "encoding": "inplace",
        "label": "contract IERC20",
        "numberOfBytes": "20"
      },
      "t_contract(IOffscriptNFT)2795": {
        "encoding": "inplace",
        "label": "contract IOffscriptNFT",
        "numberOfBytes": "20"
      },
      "t_mapping(t_address,t_contract(AggregatorV3Interface)45)": {
        "encoding": "mapping",
        "key": "t_address",
        "label": "mapping(address => contract AggregatorV3Interface)",
        "numberOfBytes": "32",
        "value": "t_contract(AggregatorV3Interface)45"
      },
      "t_mapping(t_uint256,t_bool)": {
        "encoding": "mapping",
        "key": "t_uint256",
        "label": "mapping(uint256 => bool)",
        "numberOfBytes": "32",
        "value": "t_bool"
      },
      "t_uint16": {
        "encoding": "inplace",
        "label": "uint16",
        "numberOfBytes": "2"
      },
      "t_uint256": {
        "encoding": "inplace",
        "label": "uint256",
        "numberOfBytes": "32"
      }
    }
  }
}