{
  "address": "0xe943A95D7aEB81aa7431d49e2Df048989C10FB70",
  "abi": [
    {
      "inputs": [
        {
          "internalType": "string",
          "name": "_name",
          "type": "string"
        },
        {
          "internalType": "string",
          "name": "_symbol",
          "type": "string"
        },
        {
          "internalType": "string",
          "name": "_baseURI",
          "type": "string"
        },
        {
          "internalType": "uint8",
          "name": "_remainingPublicSupply",
          "type": "uint8"
        },
        {
          "internalType": "uint8",
          "name": "_remainingPrivateSupply",
          "type": "uint8"
        },
        {
          "internalType": "uint8[]",
          "name": "_discounts",
          "type": "uint8[]"
        },
        {
          "internalType": "uint8[]",
          "name": "_availablePerTrait",
          "type": "uint8[]"
        },
        {
          "internalType": "uint256",
          "name": "_price",
          "type": "uint256"
        }
      ],
      "stateMutability": "nonpayable",
      "type": "constructor"
    },
    {
      "anonymous": false,
      "inputs": [
        {
          "indexed": true,
          "internalType": "address",
          "name": "owner",
          "type": "address"
        },
        {
          "indexed": true,
          "internalType": "address",
          "name": "approved",
          "type": "address"
        },
        {
          "indexed": true,
          "internalType": "uint256",
          "name": "tokenId",
          "type": "uint256"
        }
      ],
      "name": "Approval",
      "type": "event"
    },
    {
      "anonymous": false,
      "inputs": [
        {
          "indexed": true,
          "internalType": "address",
          "name": "owner",
          "type": "address"
        },
        {
          "indexed": true,
          "internalType": "address",
          "name": "operator",
          "type": "address"
        },
        {
          "indexed": false,
          "internalType": "bool",
          "name": "approved",
          "type": "bool"
        }
      ],
      "name": "ApprovalForAll",
      "type": "event"
    },
    {
      "anonymous": false,
      "inputs": [
        {
          "indexed": false,
          "internalType": "string",
          "name": "newBaseURI",
          "type": "string"
        }
      ],
      "name": "BaseURIUpdated",
      "type": "event"
    },
    {
      "anonymous": false,
      "inputs": [
        {
          "indexed": true,
          "internalType": "address",
          "name": "previousOwner",
          "type": "address"
        },
        {
          "indexed": true,
          "internalType": "address",
          "name": "newOwner",
          "type": "address"
        }
      ],
      "name": "OwnershipTransferred",
      "type": "event"
    },
    {
      "anonymous": false,
      "inputs": [
        {
          "indexed": true,
          "internalType": "address",
          "name": "from",
          "type": "address"
        },
        {
          "indexed": true,
          "internalType": "address",
          "name": "to",
          "type": "address"
        },
        {
          "indexed": true,
          "internalType": "uint256",
          "name": "tokenId",
          "type": "uint256"
        }
      ],
      "name": "Transfer",
      "type": "event"
    },
    {
      "inputs": [],
      "name": "admin",
      "outputs": [
        {
          "internalType": "address",
          "name": "",
          "type": "address"
        }
      ],
      "stateMutability": "view",
      "type": "function"
    },
    {
      "inputs": [
        {
          "internalType": "address",
          "name": "to",
          "type": "address"
        },
        {
          "internalType": "uint256",
          "name": "tokenId",
          "type": "uint256"
        }
      ],
      "name": "approve",
      "outputs": [],
      "stateMutability": "nonpayable",
      "type": "function"
    },
    {
      "inputs": [
        {
          "internalType": "uint256",
          "name": "",
          "type": "uint256"
        }
      ],
      "name": "availablePerTrait",
      "outputs": [
        {
          "internalType": "uint8",
          "name": "",
          "type": "uint8"
        }
      ],
      "stateMutability": "view",
      "type": "function"
    },
    {
      "inputs": [
        {
          "internalType": "address",
          "name": "owner",
          "type": "address"
        }
      ],
      "name": "balanceOf",
      "outputs": [
        {
          "internalType": "uint256",
          "name": "",
          "type": "uint256"
        }
      ],
      "stateMutability": "view",
      "type": "function"
    },
    {
      "inputs": [],
      "name": "baseURI",
      "outputs": [
        {
          "internalType": "string",
          "name": "",
          "type": "string"
        }
      ],
      "stateMutability": "view",
      "type": "function"
    },
    {
      "inputs": [],
      "name": "description",
      "outputs": [
        {
          "internalType": "string",
          "name": "",
          "type": "string"
        }
      ],
      "stateMutability": "view",
      "type": "function"
    },
    {
      "inputs": [
        {
          "internalType": "uint256",
          "name": "",
          "type": "uint256"
        }
      ],
      "name": "discounts",
      "outputs": [
        {
          "internalType": "uint8",
          "name": "",
          "type": "uint8"
        }
      ],
      "stateMutability": "view",
      "type": "function"
    },
    {
      "inputs": [],
      "name": "externalUrl",
      "outputs": [
        {
          "internalType": "string",
          "name": "",
          "type": "string"
        }
      ],
      "stateMutability": "view",
      "type": "function"
    },
    {
      "inputs": [
        {
          "internalType": "uint256",
          "name": "tokenId",
          "type": "uint256"
        }
      ],
      "name": "getApproved",
      "outputs": [
        {
          "internalType": "address",
          "name": "",
          "type": "address"
        }
      ],
      "stateMutability": "view",
      "type": "function"
    },
    {
      "inputs": [
        {
          "internalType": "uint256",
          "name": "tokenId",
          "type": "uint256"
        }
      ],
      "name": "getMetadata",
      "outputs": [
        {
          "internalType": "uint8",
          "name": "discount",
          "type": "uint8"
        },
        {
          "internalType": "string",
          "name": "name",
          "type": "string"
        }
      ],
      "stateMutability": "view",
      "type": "function"
    },
    {
      "inputs": [
        {
          "internalType": "address",
          "name": "owner",
          "type": "address"
        },
        {
          "internalType": "address",
          "name": "operator",
          "type": "address"
        }
      ],
      "name": "isApprovedForAll",
      "outputs": [
        {
          "internalType": "bool",
          "name": "",
          "type": "bool"
        }
      ],
      "stateMutability": "view",
      "type": "function"
    },
    {
      "inputs": [
        {
          "internalType": "address[]",
          "name": "_addresses",
          "type": "address[]"
        },
        {
          "internalType": "uint8[]",
          "name": "_discounts",
          "type": "uint8[]"
        },
        {
          "internalType": "string[]",
          "name": "_names",
          "type": "string[]"
        }
      ],
      "name": "mintPrivate",
      "outputs": [],
      "stateMutability": "nonpayable",
      "type": "function"
    },
    {
      "inputs": [],
      "name": "mintPublic",
      "outputs": [],
      "stateMutability": "payable",
      "type": "function"
    },
    {
      "inputs": [],
      "name": "name",
      "outputs": [
        {
          "internalType": "string",
          "name": "",
          "type": "string"
        }
      ],
      "stateMutability": "view",
      "type": "function"
    },
    {
      "inputs": [],
      "name": "nextPrivateID",
      "outputs": [
        {
          "internalType": "uint8",
          "name": "",
          "type": "uint8"
        }
      ],
      "stateMutability": "view",
      "type": "function"
    },
    {
      "inputs": [],
      "name": "owner",
      "outputs": [
        {
          "internalType": "address",
          "name": "",
          "type": "address"
        }
      ],
      "stateMutability": "view",
      "type": "function"
    },
    {
      "inputs": [
        {
          "internalType": "uint256",
          "name": "tokenId",
          "type": "uint256"
        }
      ],
      "name": "ownerOf",
      "outputs": [
        {
          "internalType": "address",
          "name": "",
          "type": "address"
        }
      ],
      "stateMutability": "view",
      "type": "function"
    },
    {
      "inputs": [],
      "name": "price",
      "outputs": [
        {
          "internalType": "uint256",
          "name": "",
          "type": "uint256"
        }
      ],
      "stateMutability": "view",
      "type": "function"
    },
    {
      "inputs": [],
      "name": "remainingPrivateSupply",
      "outputs": [
        {
          "internalType": "uint8",
          "name": "",
          "type": "uint8"
        }
      ],
      "stateMutability": "view",
      "type": "function"
    },
    {
      "inputs": [],
      "name": "remainingPublicSupply",
      "outputs": [
        {
          "internalType": "uint8",
          "name": "",
          "type": "uint8"
        }
      ],
      "stateMutability": "view",
      "type": "function"
    },
    {
      "inputs": [],
      "name": "renounceOwnership",
      "outputs": [],
      "stateMutability": "nonpayable",
      "type": "function"
    },
    {
      "inputs": [
        {
          "internalType": "address",
          "name": "from",
          "type": "address"
        },
        {
          "internalType": "address",
          "name": "to",
          "type": "address"
        },
        {
          "internalType": "uint256",
          "name": "tokenId",
          "type": "uint256"
        }
      ],
      "name": "safeTransferFrom",
      "outputs": [],
      "stateMutability": "nonpayable",
      "type": "function"
    },
    {
      "inputs": [
        {
          "internalType": "address",
          "name": "from",
          "type": "address"
        },
        {
          "internalType": "address",
          "name": "to",
          "type": "address"
        },
        {
          "internalType": "uint256",
          "name": "tokenId",
          "type": "uint256"
        },
        {
          "internalType": "bytes",
          "name": "_data",
          "type": "bytes"
        }
      ],
      "name": "safeTransferFrom",
      "outputs": [],
      "stateMutability": "nonpayable",
      "type": "function"
    },
    {
      "inputs": [
        {
          "internalType": "address",
          "name": "operator",
          "type": "address"
        },
        {
          "internalType": "bool",
          "name": "approved",
          "type": "bool"
        }
      ],
      "name": "setApprovalForAll",
      "outputs": [],
      "stateMutability": "nonpayable",
      "type": "function"
    },
    {
      "inputs": [
        {
          "internalType": "string",
          "name": "_newBaseURI",
          "type": "string"
        }
      ],
      "name": "setBaseURI",
      "outputs": [],
      "stateMutability": "nonpayable",
      "type": "function"
    },
    {
      "inputs": [
        {
          "internalType": "bytes4",
          "name": "interfaceId",
          "type": "bytes4"
        }
      ],
      "name": "supportsInterface",
      "outputs": [
        {
          "internalType": "bool",
          "name": "",
          "type": "bool"
        }
      ],
      "stateMutability": "view",
      "type": "function"
    },
    {
      "inputs": [],
      "name": "sweep",
      "outputs": [],
      "stateMutability": "nonpayable",
      "type": "function"
    },
    {
      "inputs": [],
      "name": "symbol",
      "outputs": [
        {
          "internalType": "string",
          "name": "",
          "type": "string"
        }
      ],
      "stateMutability": "view",
      "type": "function"
    },
    {
      "inputs": [
        {
          "internalType": "uint256",
          "name": "tokenId",
          "type": "uint256"
        }
      ],
      "name": "tokenURI",
      "outputs": [
        {
          "internalType": "string",
          "name": "",
          "type": "string"
        }
      ],
      "stateMutability": "view",
      "type": "function"
    },
    {
      "inputs": [],
      "name": "totalPrivateSupply",
      "outputs": [
        {
          "internalType": "uint8",
          "name": "",
          "type": "uint8"
        }
      ],
      "stateMutability": "view",
      "type": "function"
    },
    {
      "inputs": [],
      "name": "totalPublicSupply",
      "outputs": [
        {
          "internalType": "uint8",
          "name": "",
          "type": "uint8"
        }
      ],
      "stateMutability": "view",
      "type": "function"
    },
    {
      "inputs": [
        {
          "internalType": "address",
          "name": "from",
          "type": "address"
        },
        {
          "internalType": "address",
          "name": "to",
          "type": "address"
        },
        {
          "internalType": "uint256",
          "name": "tokenId",
          "type": "uint256"
        }
      ],
      "name": "transferFrom",
      "outputs": [],
      "stateMutability": "nonpayable",
      "type": "function"
    },
    {
      "inputs": [
        {
          "internalType": "address",
          "name": "newOwner",
          "type": "address"
        }
      ],
      "name": "transferOwnership",
      "outputs": [],
      "stateMutability": "nonpayable",
      "type": "function"
    }
  ],
  "transactionHash": "0x564b4bd5745840bd22d5c33198725b64680b1b19360542381395177ba5a3151c",
  "args": [
    "OffscriptNFT",
    "OFFSCRIPT",
    "https://infura-ipfs.io/ipfs/QmSQpjJSKnjR9X23WaGp1gKo7ReteUMNri16Vru43pGGHC/",
    40,
    110,
    [
      10,
      25,
      40,
      100
    ],
    [
      23,
      10,
      5,
      2
    ],
    "30000000000000000"
  ],
  "numDeployments": 1,
  "solcInputHash": "a3f075a9ad07e10573c3995c6a2346a5",
  "bytecode": "0x60096105c08181526842656172626572727960b81b6105e05260c09081526004610600908152632132b0b760e11b6106205260e052600e6106408181526d43616c69666f726e69612062617960901b6106605261010052600a6106808181526910985e481b185d5c995b60b21b6106a0526101205260036106c08181526242617960e81b6106e052610140526006610700818152652130b7b130b160d11b61072052610160526107408181526542616e616e6160d01b61076052610180526107808181526542616d626f6f60d01b6107a0526101a052600f6107c09081526e4361726f6c696e6120617a6f6c6c6160881b6107e0526101c05261080081815265417a6f6c6c6160d01b610820526101e052610840868152680aec2e8cae440c2e6d60bb1b6108605261020052610880868152680aed0d2e8ca40c2e6d60bb1b6108a052610220526108c0868152680a6eec2dae040c2e6d60bb1b6108e05261024052610900868152680a4d2eccae440c2e6d60bb1b61092052610260526007610940818152660a4cac840c2e6d60cb1b61096052610280526109808781526809ac2e0d8ca40c2e6d60bb1b6109a0526102a0526109c08781526808ee4cacadc40c2e6d60bb1b6109e0526102c0526008610a0081815267086c2dcca40c2e6d60c31b610a20526102e052610a4081815267084d8eaca40c2e6d60c31b610a605261030052610a8088815268084d8c2c6d640c2e6d60bb1b610aa05261032052610ac093845262082e6d60eb1b610ae052610340939093526010610b008181526f125b991a585b88185c9c9bdddddbdbd960821b610b205261036052610b4097885268105c9c9bdddddbdbd960ba1b610b605261038097909752610b809687526f4172697a6f6e6120737963616d6f726560801b610ba0526103a0969096526005610bc08181526420b93330b560d91b610be0526103c052610c0087815266105c1c9a58dbdd60ca1b610c20526103e052610c408581526d4170706c65206f6620536f646f6d60901b610c605261040052610c80818152644170706c6560d81b610ca05261042052610cc092835267105b5e481c9bdbdd60c21b610ce05261044092909252600d610d008181526c54616c6c20616d62726f73696160981b610d205261046052610d4091825265105b1b5bdb9960d21b610d605261048091909152600b610d808181526a2bb434ba329030b63232b960a91b610da0526104a052610dc09182526c29ba3934b832b21030b63232b960991b610de0526104c091909152600c610e008181526b416c6e757320696e63616e6160a01b610e20526104e052610e409485526d29b832b1b5b632b21030b63232b960911b610e605261050094909452610e809283526923b930bc9030b63232b960b11b610ea05261052092909252610ec08281526a2330b639b29030b63232b960a91b610ee05261054052610f009283526b21b7b6b6b7b71030b63232b960a11b610f205261056092909252610f409081526a213630b1b59030b63232b960a91b610f605261058052610fc0604052610f809081526420b63232b960d91b610fa0526105a052620004889190602862000696565b503480156200049657600080fd5b50604051620037c1380380620037c1833981016040819052620004b99162000a3f565b875188908890620004d2906000906020850190620006fa565b508051620004e8906001906020840190620006fa565b50505062000505620004ff6200064060201b60201c565b62000644565b60075460ff8616146200055e5760405162461bcd60e51b815260206004820152601960248201527f646966666572656e7420616d6f756e74206f66206e616d657300000000000000604482015260640160405180910390fd5b855162000573906009906020890190620006fa565b5060ff858116608081905290851660a0819052600a805461ffff19168317610100909202919091179055620005aa90600162000b4f565b600a805460ff92909216620100000262ff0000199092169190911790558251620005dc90600b90602086019062000785565b508151620005f290600c90602085019062000785565b50600e8190556040517f6741b2fc379fad678116fe3d4d4b9a1a184ab53ba36b86ad0fa66340b1ab41ad906200062a90889062000b83565b60405180910390a1505050505050505062000bf5565b3390565b600680546001600160a01b038381166001600160a01b0319831681179093556040519116919082907f8be0079c531659141344cd1fd0a4f28419497f9722a3daafe3b4186f6b6457e090600090a35050565b828054828255906000526020600020908101928215620006e8579160200282015b82811115620006e85782518051620006d7918491602090910190620006fa565b5091602001919060010190620006b7565b50620006f69291506200082d565b5090565b828054620007089062000bb8565b90600052602060002090601f0160209004810192826200072c576000855562000777565b82601f106200074757805160ff191683800117855562000777565b8280016001018555821562000777579182015b82811115620007775782518255916020019190600101906200075a565b50620006f69291506200084e565b82805482825590600052602060002090601f01602090048101928215620007775791602002820160005b83821115620007ef57835183826101000a81548160ff021916908360ff1602179055509260200192600101602081600001049283019260010302620007af565b80156200081e5782816101000a81549060ff0219169055600101602081600001049283019260010302620007ef565b5050620006f69291506200084e565b80821115620006f657600062000844828262000865565b506001016200082d565b5b80821115620006f657600081556001016200084f565b508054620008739062000bb8565b6000825580601f1062000884575050565b601f016020900490600052602060002090810190620008a491906200084e565b50565b634e487b7160e01b600052604160045260246000fd5b604051601f8201601f191681016001600160401b0381118282101715620008e857620008e8620008a7565b604052919050565b60005b838110156200090d578181015183820152602001620008f3565b838111156200091d576000848401525b50505050565b600082601f8301126200093557600080fd5b81516001600160401b03811115620009515762000951620008a7565b62000966601f8201601f1916602001620008bd565b8181528460208386010111156200097c57600080fd5b6200098f826020830160208701620008f0565b949350505050565b805160ff81168114620009a957600080fd5b919050565b600082601f830112620009c057600080fd5b815160206001600160401b03821115620009de57620009de620008a7565b8160051b620009ef828201620008bd565b928352848101820192828101908785111562000a0a57600080fd5b83870192505b8483101562000a345762000a248362000997565b8252918301919083019062000a10565b979650505050505050565b600080600080600080600080610100898b03121562000a5d57600080fd5b88516001600160401b038082111562000a7557600080fd5b62000a838c838d0162000923565b995060208b015191508082111562000a9a57600080fd5b62000aa88c838d0162000923565b985060408b015191508082111562000abf57600080fd5b62000acd8c838d0162000923565b975062000add60608c0162000997565b965062000aed60808c0162000997565b955060a08b015191508082111562000b0457600080fd5b62000b128c838d01620009ae565b945060c08b015191508082111562000b2957600080fd5b5062000b388b828c01620009ae565b92505060e089015190509295985092959890939650565b600060ff821660ff84168060ff0382111562000b7b57634e487b7160e01b600052601160045260246000fd5b019392505050565b602081526000825180602084015262000ba4816040850160208701620008f0565b601f01601f19169190910160400192915050565b600181811c9082168062000bcd57607f821691505b6020821081141562000bef57634e487b7160e01b600052602260045260246000fd5b50919050565b60805160a051612b9162000c306000396000818161023a01526109000152600081816105ab015281816108df0152610f5b0152612b916000f3fe6080604052600436106101ee5760003560e01c80637284e4161161010d578063a574cea4116100a0578063ca0563a61161006f578063ca0563a614610579578063e6a5931e14610599578063e985e9c5146105cd578063f2fde38b14610616578063f851a4401461063657600080fd5b8063a574cea4146104eb578063b88d4fde14610519578063bae6a69014610539578063c87b56dd1461055957600080fd5b806395d89b41116100dc57806395d89b41146104815780639da5b5c214610496578063a035b1fe146104b5578063a22cb465146104cb57600080fd5b80637284e416146104315780638c874ebd146104465780638da5cb5b1461044e5780638fc734841461046c57600080fd5b806335faa416116101855780636352211e116101545780636352211e146103b95780636c0360eb146103d957806370a08231146103ee578063715018a61461041c57600080fd5b806335faa4161461034457806342842e0e1461035957806355f804b3146103795780635bc2a3491461039957600080fd5b806308fd4e74116101c157806308fd4e74146102c8578063095ea7b3146102ea57806310042e101461030a57806323b872dd1461032457600080fd5b806301ffc9a7146101f3578063053d67661461022857806306fdde031461026e578063081812fc14610290575b600080fd5b3480156101ff57600080fd5b5061021361020e3660046120bc565b610656565b60405190151581526020015b60405180910390f35b34801561023457600080fd5b5061025c7f000000000000000000000000000000000000000000000000000000000000000081565b60405160ff909116815260200161021f565b34801561027a57600080fd5b50610283610667565b60405161021f9190612138565b34801561029c57600080fd5b506102b06102ab36600461214b565b6106f9565b6040516001600160a01b03909116815260200161021f565b3480156102d457600080fd5b506102e86102e33660046121b0565b610793565b005b3480156102f657600080fd5b506102e8610305366004612266565b610a65565b34801561031657600080fd5b50600a5461025c9060ff1681565b34801561033057600080fd5b506102e861033f366004612290565b610b7b565b34801561035057600080fd5b506102e8610bac565b34801561036557600080fd5b506102e8610374366004612290565b610c23565b34801561038557600080fd5b506102e8610394366004612358565b610c3e565b3480156103a557600080fd5b50600a5461025c9062010000900460ff1681565b3480156103c557600080fd5b506102b06103d436600461214b565b610cd4565b3480156103e557600080fd5b50610283610d4b565b3480156103fa57600080fd5b5061040e6104093660046123a1565b610dd9565b60405190815260200161021f565b34801561042857600080fd5b506102e8610e60565b34801561043d57600080fd5b50610283610eb4565b6102e8610ed0565b34801561045a57600080fd5b506006546001600160a01b03166102b0565b34801561047857600080fd5b50610283611119565b34801561048d57600080fd5b50610283611135565b3480156104a257600080fd5b50600a5461025c90610100900460ff1681565b3480156104c157600080fd5b5061040e600e5481565b3480156104d757600080fd5b506102e86104e63660046123bc565b611144565b3480156104f757600080fd5b5061050b61050636600461214b565b611153565b60405161021f9291906123f8565b34801561052557600080fd5b506102e8610534366004612414565b611225565b34801561054557600080fd5b5061025c61055436600461214b565b61125d565b34801561056557600080fd5b5061028361057436600461214b565b611291565b34801561058557600080fd5b5061025c61059436600461214b565b6113fb565b3480156105a557600080fd5b5061025c7f000000000000000000000000000000000000000000000000000000000000000081565b3480156105d957600080fd5b506102136105e8366004612490565b6001600160a01b03918216600090815260056020908152604080832093909416825291909152205460ff1690565b34801561062257600080fd5b506102e86106313660046123a1565b61140b565b34801561064257600080fd5b50600d546102b0906001600160a01b031681565b6000610661826114c1565b92915050565b606060008054610676906124c3565b80601f01602080910402602001604051908101604052809291908181526020018280546106a2906124c3565b80156106ef5780601f106106c4576101008083540402835291602001916106ef565b820191906000526020600020905b8154815290600101906020018083116106d257829003601f168201915b5050505050905090565b6000818152600260205260408120546001600160a01b03166107775760405162461bcd60e51b815260206004820152602c60248201527f4552433732313a20617070726f76656420717565727920666f72206e6f6e657860448201526b34b9ba32b73a103a37b5b2b760a11b60648201526084015b60405180910390fd5b506000908152600460205260409020546001600160a01b031690565b6006546001600160a01b031633146107db5760405162461bcd60e51b81526020600482018190526024820152600080516020612b3c833981519152604482015260640161076e565b8460ff8116841461082e5760405162461bcd60e51b815260206004820152601c60248201527f4172726179732073697a65206d757374206265207468652073616d6500000000604482015260640161076e565b8561087b5760405162461bcd60e51b815260206004820152601c60248201527f4172726179206d7573742062652067726561746572207468616e203000000000604482015260640161076e565b600a5460ff8083166101009092041610156108cc5760405162461bcd60e51b81526020600482015260116024820152704e6f7420656e6f75676820737570706c7960781b604482015260640161076e565b600a54600090610100900460ff166109247f00000000000000000000000000000000000000000000000000000000000000007f0000000000000000000000000000000000000000000000000000000000000000612514565b61092e9190612539565b610939906001612514565b600a805460ff9283169350849260019161095a918591610100900416612539565b92506101000a81548160ff021916908360ff16021790555060005b8260ff168160ff161015610a5a57610a4889898360ff1681811061099b5761099b61255c565b90506020020160208101906109b091906123a1565b6109bd60ff841685612572565b89898560ff168181106109d2576109d261255c565b90506020020160208101906109e7919061258a565b88888660ff168181106109fc576109fc61255c565b9050602002810190610a0e91906125ad565b8080601f01602080910402602001604051908101604052809392919081815260200183838082843760009201919091525061151192505050565b80610a52816125f4565b915050610975565b505050505050505050565b6000610a7082610cd4565b9050806001600160a01b0316836001600160a01b03161415610ade5760405162461bcd60e51b815260206004820152602160248201527f4552433732313a20617070726f76616c20746f2063757272656e74206f776e656044820152603960f91b606482015260840161076e565b336001600160a01b0382161480610afa5750610afa81336105e8565b610b6c5760405162461bcd60e51b815260206004820152603860248201527f4552433732313a20617070726f76652063616c6c6572206973206e6f74206f7760448201527f6e6572206e6f7220617070726f76656420666f7220616c6c0000000000000000606482015260840161076e565b610b76838361156c565b505050565b610b8533826115da565b610ba15760405162461bcd60e51b815260040161076e90612614565b610b768383836116d1565b6006546001600160a01b03163314610bf45760405162461bcd60e51b81526020600482018190526024820152600080516020612b3c833981519152604482015260640161076e565b60405133904780156108fc02916000818181858888f19350505050158015610c20573d6000803e3d6000fd5b50565b610b7683838360405180602001604052806000815250611225565b6006546001600160a01b03163314610c865760405162461bcd60e51b81526020600482018190526024820152600080516020612b3c833981519152604482015260640161076e565b8051610c99906009906020840190611fd7565b507f6741b2fc379fad678116fe3d4d4b9a1a184ab53ba36b86ad0fa66340b1ab41ad81604051610cc99190612138565b60405180910390a150565b6000818152600260205260408120546001600160a01b0316806106615760405162461bcd60e51b815260206004820152602960248201527f4552433732313a206f776e657220717565727920666f72206e6f6e657869737460448201526832b73a103a37b5b2b760b91b606482015260840161076e565b60098054610d58906124c3565b80601f0160208091040260200160405190810160405280929190818152602001828054610d84906124c3565b8015610dd15780601f10610da657610100808354040283529160200191610dd1565b820191906000526020600020905b815481529060010190602001808311610db457829003601f168201915b505050505081565b60006001600160a01b038216610e445760405162461bcd60e51b815260206004820152602a60248201527f4552433732313a2062616c616e636520717565727920666f7220746865207a65604482015269726f206164647265737360b01b606482015260840161076e565b506001600160a01b031660009081526003602052604090205490565b6006546001600160a01b03163314610ea85760405162461bcd60e51b81526020600482018190526024820152600080516020612b3c833981519152604482015260640161076e565b610eb2600061186d565b565b6040518060c0016040528060998152602001612a3f6099913981565b600e54341015610f0f5760405162461bcd60e51b815260206004820152600a60248201526909cdee840cadcdeeaced60b31b604482015260640161076e565b600a5460ff16610f4c5760405162461bcd60e51b815260206004820152600860248201526711195c1b195d195960c21b604482015260640161076e565b600a54600090610f7f9060ff167f0000000000000000000000000000000000000000000000000000000000000000612539565b610f8a906001612514565b6040516bffffffffffffffffffffffff1933606090811b8216602084015232901b16603482015244604882015242606882015260ff9190911691506000906088016040516020818303038152906040528051906020012060001c90506000610ff1826118bf565b6007805491925060009161100790600190612665565b815481106110175761101761255c565b90600052602060002001805461102c906124c3565b80601f0160208091040260200160405190810160405280929190818152602001828054611058906124c3565b80156110a55780601f1061107a576101008083540402835291602001916110a5565b820191906000526020600020905b81548152906001019060200180831161108857829003601f168201915b505050505090506110b833858484611511565b60078054806110c9576110c961267c565b6001900381819060005260206000200160006110e5919061205b565b9055600a805460ff169060006110fa83612692565b91906101000a81548160ff021916908360ff1602179055505050505050565b604051806060016040528060248152602001612ad86024913981565b606060018054610676906124c3565b61114f3383836119f6565b5050565b60008181526008602090815260408083208151808301909252805460ff168252600181018054606094869493929084019161118d906124c3565b80601f01602080910402602001604051908101604052809291908181526020018280546111b9906124c3565b80156112065780601f106111db57610100808354040283529160200191611206565b820191906000526020600020905b8154815290600101906020018083116111e957829003601f168201915b5050505050815250509050806000015181602001519250925050915091565b61122f33836115da565b61124b5760405162461bcd60e51b815260040161076e90612614565b61125784848484611ac5565b50505050565b600b818154811061126d57600080fd5b9060005260206000209060209182820401919006915054906101000a900460ff1681565b60008181526008602090815260408083208151808301909252805460ff16825260018101805460609594840191906112c8906124c3565b80601f01602080910402602001604051908101604052809291908181526020018280546112f4906124c3565b80156113415780601f1061131657610100808354040283529160200191611341565b820191906000526020600020905b81548152906001019060200180831161132457829003601f168201915b505050505081525050905060006040518060c0016040528060998152602001612a3f609991398260200151604051806060016040528060248152602001612ad86024913984516113939060ff16611af8565b856020015160096113a38a611af8565b6040516020016113b99796959493929190612765565b60405160208183030381529060405290506113d381611bf6565b6040516020016113e391906128b4565b60405160208183030381529060405292505050919050565b600c818154811061126d57600080fd5b6006546001600160a01b031633146114535760405162461bcd60e51b81526020600482018190526024820152600080516020612b3c833981519152604482015260640161076e565b6001600160a01b0381166114b85760405162461bcd60e51b815260206004820152602660248201527f4f776e61626c653a206e6577206f776e657220697320746865207a65726f206160448201526564647265737360d01b606482015260840161076e565b610c208161186d565b60006001600160e01b031982166380ac58cd60e01b14806114f257506001600160e01b03198216635b5e139f60e01b145b8061066157506301ffc9a760e01b6001600160e01b0319831614610661565b60408051808201825260ff84811682526020808301858152600088815260088352949094208351815460ff19169316929092178255925180519293919261155e9260018501920190611fd7565b509050506112578484611d4a565b600081815260046020526040902080546001600160a01b0319166001600160a01b03841690811790915581906115a182610cd4565b6001600160a01b03167f8c5be1e5ebec7d5bd14f71427d1e84f3dd0314c0f7b2291e5b200ac8c7c3b92560405160405180910390a45050565b6000818152600260205260408120546001600160a01b03166116535760405162461bcd60e51b815260206004820152602c60248201527f4552433732313a206f70657261746f7220717565727920666f72206e6f6e657860448201526b34b9ba32b73a103a37b5b2b760a11b606482015260840161076e565b600061165e83610cd4565b9050806001600160a01b0316846001600160a01b031614806116995750836001600160a01b031661168e846106f9565b6001600160a01b0316145b806116c957506001600160a01b0380821660009081526005602090815260408083209388168352929052205460ff165b949350505050565b826001600160a01b03166116e482610cd4565b6001600160a01b0316146117485760405162461bcd60e51b815260206004820152602560248201527f4552433732313a207472616e736665722066726f6d20696e636f72726563742060448201526437bbb732b960d91b606482015260840161076e565b6001600160a01b0382166117aa5760405162461bcd60e51b8152602060048201526024808201527f4552433732313a207472616e7366657220746f20746865207a65726f206164646044820152637265737360e01b606482015260840161076e565b6117b560008261156c565b6001600160a01b03831660009081526003602052604081208054600192906117de908490612665565b90915550506001600160a01b038216600090815260036020526040812080546001929061180c908490612572565b909155505060008181526002602052604080822080546001600160a01b0319166001600160a01b0386811691821790925591518493918716917fddf252ad1be2c89b69c2b068fc378daa952ba7f163c4a11628f55a4df523b3ef91a4505050565b600680546001600160a01b038381166001600160a01b0319831681179093556040519116919082907f8be0079c531659141344cd1fd0a4f28419497f9722a3daafe3b4186f6b6457e090600090a35050565b600a546000906118d29060ff168361290f565b600c549092506000905b8060ff168260ff1610156119ef576000600c8360ff16815481106119025761190261255c565b90600052602060002090602091828204019190069054906101000a900460ff1690508060ff168560ff1610156119d057600c8360ff16815481106119485761194861255c565b906000526020600020906020918282040191900681819054906101000a900460ff168092919061197790612692565b91906101000a81548160ff021916908360ff16021790555050600b8360ff16815481106119a6576119a661255c565b90600052602060002090602091828204019190069054906101000a900460ff169350505050919050565b6119da8186612539565b9450826119e6816125f4565b935050506118dc565b5050919050565b816001600160a01b0316836001600160a01b03161415611a585760405162461bcd60e51b815260206004820152601960248201527f4552433732313a20617070726f766520746f2063616c6c657200000000000000604482015260640161076e565b6001600160a01b03838116600081815260056020908152604080832094871680845294825291829020805460ff191686151590811790915591519182527f17307eab39ab6107e8899845ad3d59bd9653f200f220920489ca2b5937696c31910160405180910390a3505050565b611ad08484846116d1565b611adc84848484611d64565b6112575760405162461bcd60e51b815260040161076e90612931565b606081611b1c5750506040805180820190915260018152600360fc1b602082015290565b8160005b8115611b465780611b3081612983565b9150611b3f9050600a8361299e565b9150611b20565b60008167ffffffffffffffff811115611b6157611b616122cc565b6040519080825280601f01601f191660200182016040528015611b8b576020820181803683370190505b5090505b84156116c957611ba0600183612665565b9150611bad600a866129b2565b611bb8906030612572565b60f81b818381518110611bcd57611bcd61255c565b60200101906001600160f81b031916908160001a905350611bef600a8661299e565b9450611b8f565b6060815160001415611c1657505060408051602081019091526000815290565b6000604051806060016040528060408152602001612afc6040913990506000600384516002611c459190612572565b611c4f919061299e565b611c5a9060046129c6565b67ffffffffffffffff811115611c7257611c726122cc565b6040519080825280601f01601f191660200182016040528015611c9c576020820181803683370190505b509050600182016020820185865187015b80821015611d08576003820191508151603f8160121c168501518453600184019350603f81600c1c168501518453600184019350603f8160061c168501518453600184019350603f8116850151845350600183019250611cad565b5050600386510660018114611d245760028114611d3757611d3f565b603d6001830353603d6002830353611d3f565b603d60018303535b509195945050505050565b61114f828260405180602001604052806000815250611e62565b60006001600160a01b0384163b15611e5757604051630a85bd0160e11b81526001600160a01b0385169063150b7a0290611da89033908990889088906004016129e5565b6020604051808303816000875af1925050508015611de3575060408051601f3d908101601f19168201909252611de091810190612a21565b60015b611e3d573d808015611e11576040519150601f19603f3d011682016040523d82523d6000602084013e611e16565b606091505b508051611e355760405162461bcd60e51b815260040161076e90612931565b805181602001fd5b6001600160e01b031916630a85bd0160e11b1490506116c9565b506001949350505050565b611e6c8383611e95565b611e796000848484611d64565b610b765760405162461bcd60e51b815260040161076e90612931565b6001600160a01b038216611eeb5760405162461bcd60e51b815260206004820181905260248201527f4552433732313a206d696e7420746f20746865207a65726f2061646472657373604482015260640161076e565b6000818152600260205260409020546001600160a01b031615611f505760405162461bcd60e51b815260206004820152601c60248201527f4552433732313a20746f6b656e20616c7265616479206d696e74656400000000604482015260640161076e565b6001600160a01b0382166000908152600360205260408120805460019290611f79908490612572565b909155505060008181526002602052604080822080546001600160a01b0319166001600160a01b03861690811790915590518392907fddf252ad1be2c89b69c2b068fc378daa952ba7f163c4a11628f55a4df523b3ef908290a45050565b828054611fe3906124c3565b90600052602060002090601f016020900481019282612005576000855561204b565b82601f1061201e57805160ff191683800117855561204b565b8280016001018555821561204b579182015b8281111561204b578251825591602001919060010190612030565b50612057929150612091565b5090565b508054612067906124c3565b6000825580601f10612077575050565b601f016020900490600052602060002090810190610c2091905b5b808211156120575760008155600101612092565b6001600160e01b031981168114610c2057600080fd5b6000602082840312156120ce57600080fd5b81356120d9816120a6565b9392505050565b60005b838110156120fb5781810151838201526020016120e3565b838111156112575750506000910152565b600081518084526121248160208601602086016120e0565b601f01601f19169290920160200192915050565b6020815260006120d9602083018461210c565b60006020828403121561215d57600080fd5b5035919050565b60008083601f84011261217657600080fd5b50813567ffffffffffffffff81111561218e57600080fd5b6020830191508360208260051b85010111156121a957600080fd5b9250929050565b600080600080600080606087890312156121c957600080fd5b863567ffffffffffffffff808211156121e157600080fd5b6121ed8a838b01612164565b9098509650602089013591508082111561220657600080fd5b6122128a838b01612164565b9096509450604089013591508082111561222b57600080fd5b5061223889828a01612164565b979a9699509497509295939492505050565b80356001600160a01b038116811461226157600080fd5b919050565b6000806040838503121561227957600080fd5b6122828361224a565b946020939093013593505050565b6000806000606084860312156122a557600080fd5b6122ae8461224a565b92506122bc6020850161224a565b9150604084013590509250925092565b634e487b7160e01b600052604160045260246000fd5b600067ffffffffffffffff808411156122fd576122fd6122cc565b604051601f8501601f19908116603f01168101908282118183101715612325576123256122cc565b8160405280935085815286868601111561233e57600080fd5b858560208301376000602087830101525050509392505050565b60006020828403121561236a57600080fd5b813567ffffffffffffffff81111561238157600080fd5b8201601f8101841361239257600080fd5b6116c9848235602084016122e2565b6000602082840312156123b357600080fd5b6120d98261224a565b600080604083850312156123cf57600080fd5b6123d88361224a565b9150602083013580151581146123ed57600080fd5b809150509250929050565b60ff831681526040602082015260006116c9604083018461210c565b6000806000806080858703121561242a57600080fd5b6124338561224a565b93506124416020860161224a565b925060408501359150606085013567ffffffffffffffff81111561246457600080fd5b8501601f8101871361247557600080fd5b612484878235602084016122e2565b91505092959194509250565b600080604083850312156124a357600080fd5b6124ac8361224a565b91506124ba6020840161224a565b90509250929050565b600181811c908216806124d757607f821691505b602082108114156124f857634e487b7160e01b600052602260045260246000fd5b50919050565b634e487b7160e01b600052601160045260246000fd5b600060ff821660ff84168060ff03821115612531576125316124fe565b019392505050565b600060ff821660ff841680821015612553576125536124fe565b90039392505050565b634e487b7160e01b600052603260045260246000fd5b60008219821115612585576125856124fe565b500190565b60006020828403121561259c57600080fd5b813560ff811681146120d957600080fd5b6000808335601e198436030181126125c457600080fd5b83018035915067ffffffffffffffff8211156125df57600080fd5b6020019150368190038213156121a957600080fd5b600060ff821660ff81141561260b5761260b6124fe565b60010192915050565b60208082526031908201527f4552433732313a207472616e736665722063616c6c6572206973206e6f74206f6040820152701ddb995c881b9bdc88185c1c1c9bdd9959607a1b606082015260800190565b600082821015612677576126776124fe565b500390565b634e487b7160e01b600052603160045260246000fd5b600060ff8216806126a5576126a56124fe565b6000190192915050565b600081516126c18185602086016120e0565b9290920192915050565b8054600090600181811c90808316806126e557607f831692505b602080841082141561270757634e487b7160e01b600052602260045260246000fd5b81801561271b576001811461272c57612759565b60ff19861689528489019650612759565b60008881526020902060005b868110156127515781548b820152908501908301612738565b505084890196505b50505050505092915050565b703d913232b9b1b934b83a34b7b7111d101160791b81528751600090612792816011850160208d016120e0565b61088b60f21b601191840191820181905268113730b6b2911d101160b91b601383015289516127c881601c850160208e016120e0565b601c9201918201819052701132bc3a32b93730b62fbab936111d101160791b601e83015288516127ff81602f850160208d016120e0565b602f9201918201526128a661289461288e61288861286e61286861285261284c603189017f2261747472696275746573223a207b22646973636f756e74223a2000000000008152601b0190565b8e6126af565b6916113730b6b2911d101160b11b8152600a0190565b8b6126af565b6d113e96101134b6b0b3b2911d101160911b8152600e0190565b886126cb565b866126af565b652e706e67227d60d01b815260060190565b9a9950505050505050505050565b7f646174613a6170706c69636174696f6e2f6a736f6e3b6261736536342c0000008152600082516128ec81601d8501602087016120e0565b91909101601d0192915050565b634e487b7160e01b600052601260045260246000fd5b600060ff831680612922576129226128f9565b8060ff84160691505092915050565b60208082526032908201527f4552433732313a207472616e7366657220746f206e6f6e20455243373231526560408201527131b2b4bb32b91034b6b83632b6b2b73a32b960711b606082015260800190565b6000600019821415612997576129976124fe565b5060010190565b6000826129ad576129ad6128f9565b500490565b6000826129c1576129c16128f9565b500690565b60008160001904831182151516156129e0576129e06124fe565b500290565b60006001600160a01b03808716835280861660208401525083604083015260806060830152612a17608083018461210c565b9695505050505050565b600060208284031215612a3357600080fd5b81516120d9816120a656fe4f66667363726970742043726f776473656564204e46542e204f776e6564206279206561726c7920737570706f7274657273206f66204f6666736372697074202d20416e206f66667369746520666f722063726561746976657320696e20576562332e204f776e657273206f662074686973204e46542c20676574206120646973636f756e7420647572696e67207469636b65742073616c6568747470733a2f2f6f66667363726970742e776562336372656174697665732e636f6d2f4142434445464748494a4b4c4d4e4f505152535455565758595a6162636465666768696a6b6c6d6e6f707172737475767778797a303132333435363738392b2f4f776e61626c653a2063616c6c6572206973206e6f7420746865206f776e6572a26469706673582212209ce1335a78923165b25d644963eaaea70739632b981af1f11766b1f8133fb08864736f6c634300080b0033",
  "devdoc": {
    "kind": "dev",
    "methods": {
      "approve(address,uint256)": {
        "details": "See {IERC721-approve}."
      },
      "balanceOf(address)": {
        "details": "See {IERC721-balanceOf}."
      },
      "getApproved(uint256)": {
        "details": "See {IERC721-getApproved}."
      },
      "isApprovedForAll(address,address)": {
        "details": "See {IERC721-isApprovedForAll}."
      },
      "name()": {
        "details": "See {IERC721Metadata-name}."
      },
      "owner()": {
        "details": "Returns the address of the current owner."
      },
      "ownerOf(uint256)": {
        "details": "See {IERC721-ownerOf}."
      },
      "renounceOwnership()": {
        "details": "Leaves the contract without owner. It will not be possible to call `onlyOwner` functions anymore. Can only be called by the current owner. NOTE: Renouncing ownership will leave the contract without an owner, thereby removing any functionality that is only available to the owner."
      },
      "safeTransferFrom(address,address,uint256)": {
        "details": "See {IERC721-safeTransferFrom}."
      },
      "safeTransferFrom(address,address,uint256,bytes)": {
        "details": "See {IERC721-safeTransferFrom}."
      },
      "setApprovalForAll(address,bool)": {
        "details": "See {IERC721-setApprovalForAll}."
      },
      "setBaseURI(string)": {
        "params": {
          "_newBaseURI": "new base URI for the token"
        }
      },
      "symbol()": {
        "details": "See {IERC721Metadata-symbol}."
      },
      "tokenURI(uint256)": {
        "details": "See {IERC721Metadata-tokenURI}."
      },
      "transferFrom(address,address,uint256)": {
        "details": "See {IERC721-transferFrom}."
      },
      "transferOwnership(address)": {
        "details": "Transfers ownership of the contract to a new account (`newOwner`). Can only be called by the current owner."
      }
    },
    "version": 1
  },
  "userdoc": {
    "events": {
      "BaseURIUpdated(string)": {
        "notice": "Emitted when the base URI changes"
      }
    },
    "kind": "user",
    "methods": {
      "admin()": {
        "notice": "Admin address"
      },
      "baseURI()": {
        "notice": "Base URI for all NFTs"
      },
      "setBaseURI(string)": {
        "notice": "Updates the base URIOnly callable by an authorized operator"
      }
    },
    "version": 1
  },
  "storageLayout": {
    "storage": [
      {
        "astId": 503,
        "contract": "contracts/OffscriptNFT.sol:OffscriptNFT",
        "label": "_name",
        "offset": 0,
        "slot": "0",
        "type": "t_string_storage"
      },
      {
        "astId": 505,
        "contract": "contracts/OffscriptNFT.sol:OffscriptNFT",
        "label": "_symbol",
        "offset": 0,
        "slot": "1",
        "type": "t_string_storage"
      },
      {
        "astId": 509,
        "contract": "contracts/OffscriptNFT.sol:OffscriptNFT",
        "label": "_owners",
        "offset": 0,
        "slot": "2",
        "type": "t_mapping(t_uint256,t_address)"
      },
      {
        "astId": 513,
        "contract": "contracts/OffscriptNFT.sol:OffscriptNFT",
        "label": "_balances",
        "offset": 0,
        "slot": "3",
        "type": "t_mapping(t_address,t_uint256)"
      },
      {
        "astId": 517,
        "contract": "contracts/OffscriptNFT.sol:OffscriptNFT",
        "label": "_tokenApprovals",
        "offset": 0,
        "slot": "4",
        "type": "t_mapping(t_uint256,t_address)"
      },
      {
        "astId": 523,
        "contract": "contracts/OffscriptNFT.sol:OffscriptNFT",
        "label": "_operatorApprovals",
        "offset": 0,
        "slot": "5",
        "type": "t_mapping(t_address,t_mapping(t_address,t_bool))"
      },
      {
        "astId": 53,
        "contract": "contracts/OffscriptNFT.sol:OffscriptNFT",
        "label": "_owner",
        "offset": 0,
        "slot": "6",
        "type": "t_address"
      },
      {
        "astId": 2206,
        "contract": "contracts/OffscriptNFT.sol:OffscriptNFT",
        "label": "publicNames",
        "offset": 0,
        "slot": "7",
        "type": "t_array(t_string_storage)dyn_storage"
      },
      {
        "astId": 2211,
        "contract": "contracts/OffscriptNFT.sol:OffscriptNFT",
        "label": "metadata",
        "offset": 0,
        "slot": "8",
        "type": "t_mapping(t_uint256,t_struct(Metadata)2118_storage)"
      },
      {
        "astId": 2214,
        "contract": "contracts/OffscriptNFT.sol:OffscriptNFT",
        "label": "baseURI",
        "offset": 0,
        "slot": "9",
        "type": "t_string_storage"
      },
      {
        "astId": 2220,
        "contract": "contracts/OffscriptNFT.sol:OffscriptNFT",
        "label": "remainingPublicSupply",
        "offset": 0,
        "slot": "10",
        "type": "t_uint8"
      },
      {
        "astId": 2222,
        "contract": "contracts/OffscriptNFT.sol:OffscriptNFT",
        "label": "remainingPrivateSupply",
        "offset": 1,
        "slot": "10",
        "type": "t_uint8"
      },
      {
        "astId": 2224,
        "contract": "contracts/OffscriptNFT.sol:OffscriptNFT",
        "label": "nextPrivateID",
        "offset": 2,
        "slot": "10",
        "type": "t_uint8"
      },
      {
        "astId": 2227,
        "contract": "contracts/OffscriptNFT.sol:OffscriptNFT",
        "label": "discounts",
        "offset": 0,
        "slot": "11",
        "type": "t_array(t_uint8)dyn_storage"
      },
      {
        "astId": 2230,
        "contract": "contracts/OffscriptNFT.sol:OffscriptNFT",
        "label": "availablePerTrait",
        "offset": 0,
        "slot": "12",
        "type": "t_array(t_uint8)dyn_storage"
      },
      {
        "astId": 2233,
        "contract": "contracts/OffscriptNFT.sol:OffscriptNFT",
        "label": "admin",
        "offset": 0,
        "slot": "13",
        "type": "t_address"
      },
      {
        "astId": 2235,
        "contract": "contracts/OffscriptNFT.sol:OffscriptNFT",
        "label": "price",
        "offset": 0,
        "slot": "14",
        "type": "t_uint256"
      }
    ],
    "types": {
      "t_address": {
        "encoding": "inplace",
        "label": "address",
        "numberOfBytes": "20"
      },
      "t_array(t_string_storage)dyn_storage": {
        "base": "t_string_storage",
        "encoding": "dynamic_array",
        "label": "string[]",
        "numberOfBytes": "32"
      },
      "t_array(t_uint8)dyn_storage": {
        "base": "t_uint8",
        "encoding": "dynamic_array",
        "label": "uint8[]",
        "numberOfBytes": "32"
      },
      "t_bool": {
        "encoding": "inplace",
        "label": "bool",
        "numberOfBytes": "1"
      },
      "t_mapping(t_address,t_bool)": {
        "encoding": "mapping",
        "key": "t_address",
        "label": "mapping(address => bool)",
        "numberOfBytes": "32",
        "value": "t_bool"
      },
      "t_mapping(t_address,t_mapping(t_address,t_bool))": {
        "encoding": "mapping",
        "key": "t_address",
        "label": "mapping(address => mapping(address => bool))",
        "numberOfBytes": "32",
        "value": "t_mapping(t_address,t_bool)"
      },
      "t_mapping(t_address,t_uint256)": {
        "encoding": "mapping",
        "key": "t_address",
        "label": "mapping(address => uint256)",
        "numberOfBytes": "32",
        "value": "t_uint256"
      },
      "t_mapping(t_uint256,t_address)": {
        "encoding": "mapping",
        "key": "t_uint256",
        "label": "mapping(uint256 => address)",
        "numberOfBytes": "32",
        "value": "t_address"
      },
      "t_mapping(t_uint256,t_struct(Metadata)2118_storage)": {
        "encoding": "mapping",
        "key": "t_uint256",
        "label": "mapping(uint256 => struct IOffscriptNFT.Metadata)",
        "numberOfBytes": "32",
        "value": "t_struct(Metadata)2118_storage"
      },
      "t_string_storage": {
        "encoding": "bytes",
        "label": "string",
        "numberOfBytes": "32"
      },
      "t_struct(Metadata)2118_storage": {
        "encoding": "inplace",
        "label": "struct IOffscriptNFT.Metadata",
        "members": [
          {
            "astId": 2115,
            "contract": "contracts/OffscriptNFT.sol:OffscriptNFT",
            "label": "discount",
            "offset": 0,
            "slot": "0",
            "type": "t_uint8"
          },
          {
            "astId": 2117,
            "contract": "contracts/OffscriptNFT.sol:OffscriptNFT",
            "label": "name",
            "offset": 0,
            "slot": "1",
            "type": "t_string_storage"
          }
        ],
        "numberOfBytes": "64"
      },
      "t_uint256": {
        "encoding": "inplace",
        "label": "uint256",
        "numberOfBytes": "32"
      },
      "t_uint8": {
        "encoding": "inplace",
        "label": "uint8",
        "numberOfBytes": "1"
      }
    }
  }
}