{
  "address": "0xB670008779Cdc36f5B818F3Ba8Fe0A4bd324bFBE",
  "abi": [
    {
      "inputs": [
        {
          "internalType": "string",
          "name": "_name",
          "type": "string"
        },
        {
          "internalType": "string",
          "name": "_symbol",
          "type": "string"
        },
        {
          "internalType": "string",
          "name": "_baseURI",
          "type": "string"
        },
        {
          "internalType": "uint8",
          "name": "_remainingPublicSupply",
          "type": "uint8"
        },
        {
          "internalType": "uint8",
          "name": "_remainingPrivateSupply",
          "type": "uint8"
        },
        {
          "internalType": "uint8[]",
          "name": "_discounts",
          "type": "uint8[]"
        },
        {
          "internalType": "uint8[]",
          "name": "_availablePerTrait",
          "type": "uint8[]"
        },
        {
          "internalType": "contract IProxyRegistry",
          "name": "_proxyRegistry",
          "type": "address"
        }
      ],
      "stateMutability": "nonpayable",
      "type": "constructor"
    },
    {
      "anonymous": false,
      "inputs": [
        {
          "indexed": true,
          "internalType": "address",
          "name": "owner",
          "type": "address"
        },
        {
          "indexed": true,
          "internalType": "address",
          "name": "approved",
          "type": "address"
        },
        {
          "indexed": true,
          "internalType": "uint256",
          "name": "tokenId",
          "type": "uint256"
        }
      ],
      "name": "Approval",
      "type": "event"
    },
    {
      "anonymous": false,
      "inputs": [
        {
          "indexed": true,
          "internalType": "address",
          "name": "owner",
          "type": "address"
        },
        {
          "indexed": true,
          "internalType": "address",
          "name": "operator",
          "type": "address"
        },
        {
          "indexed": false,
          "internalType": "bool",
          "name": "approved",
          "type": "bool"
        }
      ],
      "name": "ApprovalForAll",
      "type": "event"
    },
    {
      "anonymous": false,
      "inputs": [
        {
          "indexed": false,
          "internalType": "string",
          "name": "newBaseURI",
          "type": "string"
        }
      ],
      "name": "BaseURIUpdated",
      "type": "event"
    },
    {
      "anonymous": false,
      "inputs": [
        {
          "indexed": true,
          "internalType": "address",
          "name": "previousOwner",
          "type": "address"
        },
        {
          "indexed": true,
          "internalType": "address",
          "name": "newOwner",
          "type": "address"
        }
      ],
      "name": "OwnershipTransferred",
      "type": "event"
    },
    {
      "anonymous": false,
      "inputs": [
        {
          "indexed": true,
          "internalType": "address",
          "name": "from",
          "type": "address"
        },
        {
          "indexed": true,
          "internalType": "address",
          "name": "to",
          "type": "address"
        },
        {
          "indexed": true,
          "internalType": "uint256",
          "name": "tokenId",
          "type": "uint256"
        }
      ],
      "name": "Transfer",
      "type": "event"
    },
    {
      "inputs": [],
      "name": "admin",
      "outputs": [
        {
          "internalType": "address",
          "name": "",
          "type": "address"
        }
      ],
      "stateMutability": "view",
      "type": "function"
    },
    {
      "inputs": [
        {
          "internalType": "address",
          "name": "to",
          "type": "address"
        },
        {
          "internalType": "uint256",
          "name": "tokenId",
          "type": "uint256"
        }
      ],
      "name": "approve",
      "outputs": [],
      "stateMutability": "nonpayable",
      "type": "function"
    },
    {
      "inputs": [
        {
          "internalType": "uint256",
          "name": "",
          "type": "uint256"
        }
      ],
      "name": "availablePerTrait",
      "outputs": [
        {
          "internalType": "uint8",
          "name": "",
          "type": "uint8"
        }
      ],
      "stateMutability": "view",
      "type": "function"
    },
    {
      "inputs": [
        {
          "internalType": "address",
          "name": "owner",
          "type": "address"
        }
      ],
      "name": "balanceOf",
      "outputs": [
        {
          "internalType": "uint256",
          "name": "",
          "type": "uint256"
        }
      ],
      "stateMutability": "view",
      "type": "function"
    },
    {
      "inputs": [],
      "name": "baseURI",
      "outputs": [
        {
          "internalType": "string",
          "name": "",
          "type": "string"
        }
      ],
      "stateMutability": "view",
      "type": "function"
    },
    {
      "inputs": [],
      "name": "description",
      "outputs": [
        {
          "internalType": "string",
          "name": "",
          "type": "string"
        }
      ],
      "stateMutability": "view",
      "type": "function"
    },
    {
      "inputs": [
        {
          "internalType": "uint256",
          "name": "",
          "type": "uint256"
        }
      ],
      "name": "discounts",
      "outputs": [
        {
          "internalType": "uint8",
          "name": "",
          "type": "uint8"
        }
      ],
      "stateMutability": "view",
      "type": "function"
    },
    {
      "inputs": [],
      "name": "externalUrl",
      "outputs": [
        {
          "internalType": "string",
          "name": "",
          "type": "string"
        }
      ],
      "stateMutability": "view",
      "type": "function"
    },
    {
      "inputs": [
        {
          "internalType": "uint256",
          "name": "tokenId",
          "type": "uint256"
        }
      ],
      "name": "getApproved",
      "outputs": [
        {
          "internalType": "address",
          "name": "",
          "type": "address"
        }
      ],
      "stateMutability": "view",
      "type": "function"
    },
    {
      "inputs": [
        {
          "internalType": "address",
          "name": "owner",
          "type": "address"
        },
        {
          "internalType": "address",
          "name": "operator",
          "type": "address"
        }
      ],
      "name": "isApprovedForAll",
      "outputs": [
        {
          "internalType": "bool",
          "name": "",
          "type": "bool"
        }
      ],
      "stateMutability": "view",
      "type": "function"
    },
    {
      "inputs": [
        {
          "internalType": "address[]",
          "name": "_addresses",
          "type": "address[]"
        },
        {
          "internalType": "uint8[]",
          "name": "_discounts",
          "type": "uint8[]"
        }
      ],
      "name": "mintPrivate",
      "outputs": [],
      "stateMutability": "nonpayable",
      "type": "function"
    },
    {
      "inputs": [
        {
          "internalType": "address",
          "name": "_address",
          "type": "address"
        }
      ],
      "name": "mintPublic",
      "outputs": [],
      "stateMutability": "nonpayable",
      "type": "function"
    },
    {
      "inputs": [],
      "name": "name",
      "outputs": [
        {
          "internalType": "string",
          "name": "",
          "type": "string"
        }
      ],
      "stateMutability": "view",
      "type": "function"
    },
    {
      "inputs": [],
      "name": "nextPrivateID",
      "outputs": [
        {
          "internalType": "uint8",
          "name": "",
          "type": "uint8"
        }
      ],
      "stateMutability": "view",
      "type": "function"
    },
    {
      "inputs": [],
      "name": "owner",
      "outputs": [
        {
          "internalType": "address",
          "name": "",
          "type": "address"
        }
      ],
      "stateMutability": "view",
      "type": "function"
    },
    {
      "inputs": [
        {
          "internalType": "uint256",
          "name": "tokenId",
          "type": "uint256"
        }
      ],
      "name": "ownerOf",
      "outputs": [
        {
          "internalType": "address",
          "name": "",
          "type": "address"
        }
      ],
      "stateMutability": "view",
      "type": "function"
    },
    {
      "inputs": [],
      "name": "remainingPrivateSupply",
      "outputs": [
        {
          "internalType": "uint8",
          "name": "",
          "type": "uint8"
        }
      ],
      "stateMutability": "view",
      "type": "function"
    },
    {
      "inputs": [],
      "name": "remainingPublicSupply",
      "outputs": [
        {
          "internalType": "uint8",
          "name": "",
          "type": "uint8"
        }
      ],
      "stateMutability": "view",
      "type": "function"
    },
    {
      "inputs": [],
      "name": "renounceOwnership",
      "outputs": [],
      "stateMutability": "nonpayable",
      "type": "function"
    },
    {
      "inputs": [
        {
          "internalType": "address",
          "name": "from",
          "type": "address"
        },
        {
          "internalType": "address",
          "name": "to",
          "type": "address"
        },
        {
          "internalType": "uint256",
          "name": "tokenId",
          "type": "uint256"
        }
      ],
      "name": "safeTransferFrom",
      "outputs": [],
      "stateMutability": "nonpayable",
      "type": "function"
    },
    {
      "inputs": [
        {
          "internalType": "address",
          "name": "from",
          "type": "address"
        },
        {
          "internalType": "address",
          "name": "to",
          "type": "address"
        },
        {
          "internalType": "uint256",
          "name": "tokenId",
          "type": "uint256"
        },
        {
          "internalType": "bytes",
          "name": "_data",
          "type": "bytes"
        }
      ],
      "name": "safeTransferFrom",
      "outputs": [],
      "stateMutability": "nonpayable",
      "type": "function"
    },
    {
      "inputs": [
        {
          "internalType": "address",
          "name": "operator",
          "type": "address"
        },
        {
          "internalType": "bool",
          "name": "approved",
          "type": "bool"
        }
      ],
      "name": "setApprovalForAll",
      "outputs": [],
      "stateMutability": "nonpayable",
      "type": "function"
    },
    {
      "inputs": [
        {
          "internalType": "string",
          "name": "_newBaseURI",
          "type": "string"
        }
      ],
      "name": "setBaseURI",
      "outputs": [],
      "stateMutability": "nonpayable",
      "type": "function"
    },
    {
      "inputs": [
        {
          "internalType": "bytes4",
          "name": "interfaceId",
          "type": "bytes4"
        }
      ],
      "name": "supportsInterface",
      "outputs": [
        {
          "internalType": "bool",
          "name": "",
          "type": "bool"
        }
      ],
      "stateMutability": "view",
      "type": "function"
    },
    {
      "inputs": [],
      "name": "symbol",
      "outputs": [
        {
          "internalType": "string",
          "name": "",
          "type": "string"
        }
      ],
      "stateMutability": "view",
      "type": "function"
    },
    {
      "inputs": [
        {
          "internalType": "uint256",
          "name": "tokenId",
          "type": "uint256"
        }
      ],
      "name": "tokenURI",
      "outputs": [
        {
          "internalType": "string",
          "name": "",
          "type": "string"
        }
      ],
      "stateMutability": "view",
      "type": "function"
    },
    {
      "inputs": [],
      "name": "totalPrivateSupply",
      "outputs": [
        {
          "internalType": "uint8",
          "name": "",
          "type": "uint8"
        }
      ],
      "stateMutability": "view",
      "type": "function"
    },
    {
      "inputs": [],
      "name": "totalPublicSupply",
      "outputs": [
        {
          "internalType": "uint8",
          "name": "",
          "type": "uint8"
        }
      ],
      "stateMutability": "view",
      "type": "function"
    },
    {
      "inputs": [
        {
          "internalType": "uint256",
          "name": "",
          "type": "uint256"
        }
      ],
      "name": "traits",
      "outputs": [
        {
          "internalType": "uint256",
          "name": "",
          "type": "uint256"
        }
      ],
      "stateMutability": "view",
      "type": "function"
    },
    {
      "inputs": [
        {
          "internalType": "address",
          "name": "from",
          "type": "address"
        },
        {
          "internalType": "address",
          "name": "to",
          "type": "address"
        },
        {
          "internalType": "uint256",
          "name": "tokenId",
          "type": "uint256"
        }
      ],
      "name": "transferFrom",
      "outputs": [],
      "stateMutability": "nonpayable",
      "type": "function"
    },
    {
      "inputs": [
        {
          "internalType": "address",
          "name": "newOwner",
          "type": "address"
        }
      ],
      "name": "transferOwnership",
      "outputs": [],
      "stateMutability": "nonpayable",
      "type": "function"
    }
  ],
  "transactionHash": "0xdebeb90b34d65905103c731a4a2a69ce94331fcdd622cd3f333b991899d67e6a",
  "args": [
    "OffscriptNFT",
    "OFFSCRIPT",
    "https://ipfs.io/ipfs/QmSQpjJSKnjR9X23WaGp1gKo7ReteUMNri16Vru43pGGHC/",
    40,
    110,
    [
      10,
      25,
      40,
      100
    ],
    [
      23,
      10,
      5,
      2
    ],
    "0xf57b2c51ded3a29e6891aba85459d600256cf317"
  ],
  "numDeployments": 1,
  "solcInputHash": "85ac2480a474ac01a28c6bc86262fb57",
  "bytecode": "0x60c06040523480156200001157600080fd5b5060405162002bec38038062002bec8339810160408190526200003491620004d5565b8751889088906200004d906000906020850190620001dc565b50805162000063906001906020840190620001dc565b505050620000806200007a6200018660201b60201c565b6200018a565b855162000095906008906020890190620001dc565b5060ff858116608081905290851660a08190526009805461ffff19168317610100909202919091179055620000cc906001620005ee565b6009805460ff92909216620100000262ff0000199092169190911790558251620000fe90600a9060208601906200026b565b5081516200011490600b9060208501906200026b565b50600c80546001600160a01b0383166001600160a01b031991821617909155600d8054909116331790556040517f6741b2fc379fad678116fe3d4d4b9a1a184ab53ba36b86ad0fa66340b1ab41ad906200017090889062000622565b60405180910390a1505050505050505062000694565b3390565b600680546001600160a01b038381166001600160a01b0319831681179093556040519116919082907f8be0079c531659141344cd1fd0a4f28419497f9722a3daafe3b4186f6b6457e090600090a35050565b828054620001ea9062000657565b90600052602060002090601f0160209004810192826200020e576000855562000259565b82601f106200022957805160ff191683800117855562000259565b8280016001018555821562000259579182015b82811115620002595782518255916020019190600101906200023c565b50620002679291506200030e565b5090565b82805482825590600052602060002090601f01602090048101928215620002595791602002820160005b83821115620002d557835183826101000a81548160ff021916908360ff160217905550926020019260010160208160000104928301926001030262000295565b8015620003045782816101000a81549060ff0219169055600101602081600001049283019260010302620002d5565b5050620002679291505b5b808211156200026757600081556001016200030f565b634e487b7160e01b600052604160045260246000fd5b604051601f8201601f191681016001600160401b038111828210171562000366576200036662000325565b604052919050565b60005b838110156200038b57818101518382015260200162000371565b838111156200039b576000848401525b50505050565b600082601f830112620003b357600080fd5b81516001600160401b03811115620003cf57620003cf62000325565b620003e4601f8201601f19166020016200033b565b818152846020838601011115620003fa57600080fd5b6200040d8260208301602087016200036e565b949350505050565b805160ff811681146200042757600080fd5b919050565b600082601f8301126200043e57600080fd5b815160206001600160401b038211156200045c576200045c62000325565b8160051b6200046d8282016200033b565b92835284810182019282810190878511156200048857600080fd5b83870192505b84831015620004b257620004a28362000415565b825291830191908301906200048e565b979650505050505050565b80516001600160a01b03811681146200042757600080fd5b600080600080600080600080610100898b031215620004f357600080fd5b88516001600160401b03808211156200050b57600080fd5b620005198c838d01620003a1565b995060208b01519150808211156200053057600080fd5b6200053e8c838d01620003a1565b985060408b01519150808211156200055557600080fd5b620005638c838d01620003a1565b97506200057360608c0162000415565b96506200058360808c0162000415565b955060a08b01519150808211156200059a57600080fd5b620005a88c838d016200042c565b945060c08b0151915080821115620005bf57600080fd5b50620005ce8b828c016200042c565b925050620005df60e08a01620004bd565b90509295985092959890939650565b600060ff821660ff84168060ff038211156200061a57634e487b7160e01b600052601160045260246000fd5b019392505050565b6020815260008251806020840152620006438160408501602087016200036e565b601f01601f19169190910160400192915050565b600181811c908216806200066c57607f821691505b602082108114156200068e57634e487b7160e01b600052602260045260246000fd5b50919050565b60805160a05161251d620006cf600039600081816102170152610ce101526000818161042201528181610a920152610cc0015261251d6000f3fe608060405234801561001057600080fd5b50600436106101e55760003560e01c80637284e4161161010f578063b88d4fde116100a2578063e6a5931e11610071578063e6a5931e1461041d578063e985e9c514610444578063f2fde38b1461045a578063f851a4401461046d57600080fd5b8063b88d4fde146103d1578063bae6a690146103e4578063c87b56dd146103f7578063ca0563a61461040a57600080fd5b80639da5b5c2116100de5780639da5b5c214610386578063a06cb71914610398578063a22cb465146103ab578063a70cf43e146103be57600080fd5b80637284e4161461035d5780638da5cb5b146103655780638fc734841461037657806395d89b411461037e57600080fd5b80632d72225b116101875780636352211e116101565780636352211e146103275780636c0360eb1461033a57806370a0823114610342578063715018a61461035557600080fd5b80632d72225b146102c057806342842e0e146102ee57806355f804b3146103015780635bc2a3491461031457600080fd5b8063081812fc116101c3578063081812fc14610260578063095ea7b31461028b57806310042e10146102a057806323b872dd146102ad57600080fd5b806301ffc9a7146101ea578063053d67661461021257806306fdde031461024b575b600080fd5b6101fd6101f8366004611b48565b610480565b60405190151581526020015b60405180910390f35b6102397f000000000000000000000000000000000000000000000000000000000000000081565b60405160ff9091168152602001610209565b610253610491565b6040516102099190611bc4565b61027361026e366004611bd7565b610523565b6040516001600160a01b039091168152602001610209565b61029e610299366004611c0c565b6105bd565b005b6009546102399060ff1681565b61029e6102bb366004611c36565b6106d3565b6102e06102ce366004611bd7565b60076020526000908152604090205481565b604051908152602001610209565b61029e6102fc366004611c36565b610704565b61029e61030f366004611cfe565b61071f565b6009546102399062010000900460ff1681565b610273610335366004611bd7565b6107b3565b61025361082a565b6102e0610350366004611d47565b6108b8565b61029e61093f565b6102536109a5565b6006546001600160a01b0316610273565b6102536109c1565b6102536109dd565b60095461023990610100900460ff1681565b61029e6103a6366004611d47565b6109ec565b61029e6103b9366004611d62565b610b67565b61029e6103cc366004611dea565b610b76565b61029e6103df366004611e56565b610de8565b6102396103f2366004611bd7565b610e20565b610253610405366004611bd7565b610e54565b610239610418366004611bd7565b610f0c565b6102397f000000000000000000000000000000000000000000000000000000000000000081565b6101fd610452366004611ed2565b600192915050565b61029e610468366004611d47565b610f1c565b600d54610273906001600160a01b031681565b600061048b82610fe7565b92915050565b6060600080546104a090611f05565b80601f01602080910402602001604051908101604052809291908181526020018280546104cc90611f05565b80156105195780601f106104ee57610100808354040283529160200191610519565b820191906000526020600020905b8154815290600101906020018083116104fc57829003601f168201915b5050505050905090565b6000818152600260205260408120546001600160a01b03166105a15760405162461bcd60e51b815260206004820152602c60248201527f4552433732313a20617070726f76656420717565727920666f72206e6f6e657860448201526b34b9ba32b73a103a37b5b2b760a11b60648201526084015b60405180910390fd5b506000908152600460205260409020546001600160a01b031690565b60006105c8826107b3565b9050806001600160a01b0316836001600160a01b031614156106365760405162461bcd60e51b815260206004820152602160248201527f4552433732313a20617070726f76616c20746f2063757272656e74206f776e656044820152603960f91b6064820152608401610598565b336001600160a01b038216148061065257506106528133610452565b6106c45760405162461bcd60e51b815260206004820152603860248201527f4552433732313a20617070726f76652063616c6c6572206973206e6f74206f7760448201527f6e6572206e6f7220617070726f76656420666f7220616c6c00000000000000006064820152608401610598565b6106ce8383611037565b505050565b6106dd33826110a5565b6106f95760405162461bcd60e51b815260040161059890611f40565b6106ce838383611175565b6106ce83838360405180602001604052806000815250610de8565b600d546001600160a01b031633146107655760405162461bcd60e51b81526020600482015260096024820152682737ba1030b236b4b760b91b6044820152606401610598565b8051610778906008906020840190611a99565b507f6741b2fc379fad678116fe3d4d4b9a1a184ab53ba36b86ad0fa66340b1ab41ad816040516107a89190611bc4565b60405180910390a150565b6000818152600260205260408120546001600160a01b03168061048b5760405162461bcd60e51b815260206004820152602960248201527f4552433732313a206f776e657220717565727920666f72206e6f6e657869737460448201526832b73a103a37b5b2b760b91b6064820152608401610598565b6008805461083790611f05565b80601f016020809104026020016040519081016040528092919081815260200182805461086390611f05565b80156108b05780601f10610885576101008083540402835291602001916108b0565b820191906000526020600020905b81548152906001019060200180831161089357829003601f168201915b505050505081565b60006001600160a01b0382166109235760405162461bcd60e51b815260206004820152602a60248201527f4552433732313a2062616c616e636520717565727920666f7220746865207a65604482015269726f206164647265737360b01b6064820152608401610598565b506001600160a01b031660009081526003602052604090205490565b6006546001600160a01b031633146109995760405162461bcd60e51b815260206004820181905260248201527f4f776e61626c653a2063616c6c6572206973206e6f7420746865206f776e65726044820152606401610598565b6109a36000611311565b565b6040518060c00160405280609981526020016123eb6099913981565b6040518060600160405280602481526020016124846024913981565b6060600180546104a090611f05565b6006546001600160a01b03163314610a465760405162461bcd60e51b815260206004820181905260248201527f4f776e61626c653a2063616c6c6572206973206e6f7420746865206f776e65726044820152606401610598565b60095460ff16610a835760405162461bcd60e51b815260206004820152600860248201526711195c1b195d195960c21b6044820152606401610598565b600954600090610ab69060ff167f0000000000000000000000000000000000000000000000000000000000000000611fa7565b610ac1906001611fca565b6040516bffffffffffffffffffffffff1933606090811b8216602084015232901b16603482015244604882015242606882015260ff9190911691506000906088016040516020818303038152906040528051906020012060001c90506000610b2882611363565b9050610b3584848361149a565b6009805460ff16906000610b4883611fef565b91906101000a81548160ff021916908360ff1602179055505050505050565b610b723383836114b8565b5050565b600d546001600160a01b03163314610bbc5760405162461bcd60e51b81526020600482015260096024820152682737ba1030b236b4b760b91b6044820152606401610598565b8260ff81168214610c0f5760405162461bcd60e51b815260206004820152601c60248201527f4172726179732073697a65206d757374206265207468652073616d65000000006044820152606401610598565b83610c5c5760405162461bcd60e51b815260206004820152601c60248201527f4172726179206d7573742062652067726561746572207468616e2030000000006044820152606401610598565b60095460ff808316610100909204161015610cad5760405162461bcd60e51b81526020600482015260116024820152704e6f7420656e6f75676820737570706c7960781b6044820152606401610598565b600954600090610100900460ff16610d057f00000000000000000000000000000000000000000000000000000000000000007f0000000000000000000000000000000000000000000000000000000000000000611fca565b610d0f9190611fa7565b610d1a906001611fca565b6009805460ff92831693508492600191610d3b918591610100900416611fa7565b92506101000a81548160ff021916908360ff16021790555060005b8260ff168160ff161015610ddf57610dcd87878360ff16818110610d7c57610d7c61200c565b9050602002016020810190610d919190611d47565b610d9e60ff841685612022565b87878560ff16818110610db357610db361200c565b9050602002016020810190610dc8919061203a565b61149a565b80610dd78161205d565b915050610d56565b50505050505050565b610df233836110a5565b610e0e5760405162461bcd60e51b815260040161059890611f40565b610e1a84848484611587565b50505050565b600a8181548110610e3057600080fd5b9060005260206000209060209182820401919006915054906101000a900460ff1681565b606060006007600084815260200190815260200160002054905060006040518060c00160405280609981526020016123eb6099913960405180606001604052806024815260200161248460249139610eab846115ba565b6008610eb6886115ba565b604051602001610eca959493929190612133565b6040516020818303038152906040529050610ee4816116b8565b604051602001610ef49190612249565b60405160208183030381529060405292505050919050565b600b8181548110610e3057600080fd5b6006546001600160a01b03163314610f765760405162461bcd60e51b815260206004820181905260248201527f4f776e61626c653a2063616c6c6572206973206e6f7420746865206f776e65726044820152606401610598565b6001600160a01b038116610fdb5760405162461bcd60e51b815260206004820152602660248201527f4f776e61626c653a206e6577206f776e657220697320746865207a65726f206160448201526564647265737360d01b6064820152608401610598565b610fe481611311565b50565b60006001600160e01b031982166380ac58cd60e01b148061101857506001600160e01b03198216635b5e139f60e01b145b8061048b57506301ffc9a760e01b6001600160e01b031983161461048b565b600081815260046020526040902080546001600160a01b0319166001600160a01b038416908117909155819061106c826107b3565b6001600160a01b03167f8c5be1e5ebec7d5bd14f71427d1e84f3dd0314c0f7b2291e5b200ac8c7c3b92560405160405180910390a45050565b6000818152600260205260408120546001600160a01b031661111e5760405162461bcd60e51b815260206004820152602c60248201527f4552433732313a206f70657261746f7220717565727920666f72206e6f6e657860448201526b34b9ba32b73a103a37b5b2b760a11b6064820152608401610598565b6000611129836107b3565b9050806001600160a01b0316846001600160a01b031614806111645750836001600160a01b031661115984610523565b6001600160a01b0316145b8061116d575060015b949350505050565b826001600160a01b0316611188826107b3565b6001600160a01b0316146111ec5760405162461bcd60e51b815260206004820152602560248201527f4552433732313a207472616e736665722066726f6d20696e636f72726563742060448201526437bbb732b960d91b6064820152608401610598565b6001600160a01b03821661124e5760405162461bcd60e51b8152602060048201526024808201527f4552433732313a207472616e7366657220746f20746865207a65726f206164646044820152637265737360e01b6064820152608401610598565b611259600082611037565b6001600160a01b038316600090815260036020526040812080546001929061128290849061228e565b90915550506001600160a01b03821660009081526003602052604081208054600192906112b0908490612022565b909155505060008181526002602052604080822080546001600160a01b0319166001600160a01b0386811691821790925591518493918716917fddf252ad1be2c89b69c2b068fc378daa952ba7f163c4a11628f55a4df523b3ef91a4505050565b600680546001600160a01b038381166001600160a01b0319831681179093556040519116919082907f8be0079c531659141344cd1fd0a4f28419497f9722a3daafe3b4186f6b6457e090600090a35050565b6009546000906113769060ff16836122bb565b600b549092506000905b8060ff168260ff161015611493576000600b8360ff16815481106113a6576113a661200c565b90600052602060002090602091828204019190069054906101000a900460ff1690508060ff168560ff16101561147457600b8360ff16815481106113ec576113ec61200c565b906000526020600020906020918282040191900681819054906101000a900460ff168092919061141b90611fef565b91906101000a81548160ff021916908360ff16021790555050600a8360ff168154811061144a5761144a61200c565b90600052602060002090602091828204019190069054906101000a900460ff169350505050919050565b61147e8186611fa7565b94508261148a8161205d565b93505050611380565b5050919050565b600082815260076020526040902060ff821690556106ce838361180c565b816001600160a01b0316836001600160a01b0316141561151a5760405162461bcd60e51b815260206004820152601960248201527f4552433732313a20617070726f766520746f2063616c6c6572000000000000006044820152606401610598565b6001600160a01b03838116600081815260056020908152604080832094871680845294825291829020805460ff191686151590811790915591519182527f17307eab39ab6107e8899845ad3d59bd9653f200f220920489ca2b5937696c31910160405180910390a3505050565b611592848484611175565b61159e84848484611826565b610e1a5760405162461bcd60e51b8152600401610598906122dd565b6060816115de5750506040805180820190915260018152600360fc1b602082015290565b8160005b811561160857806115f28161232f565b91506116019050600a8361234a565b91506115e2565b60008167ffffffffffffffff81111561162357611623611c72565b6040519080825280601f01601f19166020018201604052801561164d576020820181803683370190505b5090505b841561116d5761166260018361228e565b915061166f600a8661235e565b61167a906030612022565b60f81b81838151811061168f5761168f61200c565b60200101906001600160f81b031916908160001a9053506116b1600a8661234a565b9450611651565b60608151600014156116d857505060408051602081019091526000815290565b60006040518060600160405280604081526020016124a860409139905060006003845160026117079190612022565b611711919061234a565b61171c906004612372565b67ffffffffffffffff81111561173457611734611c72565b6040519080825280601f01601f19166020018201604052801561175e576020820181803683370190505b509050600182016020820185865187015b808210156117ca576003820191508151603f8160121c168501518453600184019350603f81600c1c168501518453600184019350603f8160061c168501518453600184019350603f811685015184535060018301925061176f565b50506003865106600181146117e657600281146117f957611801565b603d6001830353603d6002830353611801565b603d60018303535b509195945050505050565b610b72828260405180602001604052806000815250611924565b60006001600160a01b0384163b1561191957604051630a85bd0160e11b81526001600160a01b0385169063150b7a029061186a903390899088908890600401612391565b6020604051808303816000875af19250505080156118a5575060408051601f3d908101601f191682019092526118a2918101906123cd565b60015b6118ff573d8080156118d3576040519150601f19603f3d011682016040523d82523d6000602084013e6118d8565b606091505b5080516118f75760405162461bcd60e51b8152600401610598906122dd565b805181602001fd5b6001600160e01b031916630a85bd0160e11b14905061116d565b506001949350505050565b61192e8383611957565b61193b6000848484611826565b6106ce5760405162461bcd60e51b8152600401610598906122dd565b6001600160a01b0382166119ad5760405162461bcd60e51b815260206004820181905260248201527f4552433732313a206d696e7420746f20746865207a65726f20616464726573736044820152606401610598565b6000818152600260205260409020546001600160a01b031615611a125760405162461bcd60e51b815260206004820152601c60248201527f4552433732313a20746f6b656e20616c7265616479206d696e746564000000006044820152606401610598565b6001600160a01b0382166000908152600360205260408120805460019290611a3b908490612022565b909155505060008181526002602052604080822080546001600160a01b0319166001600160a01b03861690811790915590518392907fddf252ad1be2c89b69c2b068fc378daa952ba7f163c4a11628f55a4df523b3ef908290a45050565b828054611aa590611f05565b90600052602060002090601f016020900481019282611ac75760008555611b0d565b82601f10611ae057805160ff1916838001178555611b0d565b82800160010185558215611b0d579182015b82811115611b0d578251825591602001919060010190611af2565b50611b19929150611b1d565b5090565b5b80821115611b195760008155600101611b1e565b6001600160e01b031981168114610fe457600080fd5b600060208284031215611b5a57600080fd5b8135611b6581611b32565b9392505050565b60005b83811015611b87578181015183820152602001611b6f565b83811115610e1a5750506000910152565b60008151808452611bb0816020860160208601611b6c565b601f01601f19169290920160200192915050565b602081526000611b656020830184611b98565b600060208284031215611be957600080fd5b5035919050565b80356001600160a01b0381168114611c0757600080fd5b919050565b60008060408385031215611c1f57600080fd5b611c2883611bf0565b946020939093013593505050565b600080600060608486031215611c4b57600080fd5b611c5484611bf0565b9250611c6260208501611bf0565b9150604084013590509250925092565b634e487b7160e01b600052604160045260246000fd5b600067ffffffffffffffff80841115611ca357611ca3611c72565b604051601f8501601f19908116603f01168101908282118183101715611ccb57611ccb611c72565b81604052809350858152868686011115611ce457600080fd5b858560208301376000602087830101525050509392505050565b600060208284031215611d1057600080fd5b813567ffffffffffffffff811115611d2757600080fd5b8201601f81018413611d3857600080fd5b61116d84823560208401611c88565b600060208284031215611d5957600080fd5b611b6582611bf0565b60008060408385031215611d7557600080fd5b611d7e83611bf0565b915060208301358015158114611d9357600080fd5b809150509250929050565b60008083601f840112611db057600080fd5b50813567ffffffffffffffff811115611dc857600080fd5b6020830191508360208260051b8501011115611de357600080fd5b9250929050565b60008060008060408587031215611e0057600080fd5b843567ffffffffffffffff80821115611e1857600080fd5b611e2488838901611d9e565b90965094506020870135915080821115611e3d57600080fd5b50611e4a87828801611d9e565b95989497509550505050565b60008060008060808587031215611e6c57600080fd5b611e7585611bf0565b9350611e8360208601611bf0565b925060408501359150606085013567ffffffffffffffff811115611ea657600080fd5b8501601f81018713611eb757600080fd5b611ec687823560208401611c88565b91505092959194509250565b60008060408385031215611ee557600080fd5b611eee83611bf0565b9150611efc60208401611bf0565b90509250929050565b600181811c90821680611f1957607f821691505b60208210811415611f3a57634e487b7160e01b600052602260045260246000fd5b50919050565b60208082526031908201527f4552433732313a207472616e736665722063616c6c6572206973206e6f74206f6040820152701ddb995c881b9bdc88185c1c1c9bdd9959607a1b606082015260800190565b634e487b7160e01b600052601160045260246000fd5b600060ff821660ff841680821015611fc157611fc1611f91565b90039392505050565b600060ff821660ff84168060ff03821115611fe757611fe7611f91565b019392505050565b600060ff82168061200257612002611f91565b6000190192915050565b634e487b7160e01b600052603260045260246000fd5b6000821982111561203557612035611f91565b500190565b60006020828403121561204c57600080fd5b813560ff81168114611b6557600080fd5b600060ff821660ff81141561207457612074611f91565b60010192915050565b6000815161208f818560208601611b6c565b9290920192915050565b8054600090600181811c90808316806120b357607f831692505b60208084108214156120d557634e487b7160e01b600052602260045260246000fd5b8180156120e957600181146120fa57612127565b60ff19861689528489019650612127565b60008881526020902060005b8681101561211f5781548b820152908501908301612106565b505084890196505b50505050505092915050565b703d913232b9b1b934b83a34b7b7111d101160791b81528551600090612160816011850160208b01611b6c565b61088b60f21b60119184019182018190526e089b985b59488e88089513d113c88b608a1b6013830152701132bc3a32b93730b62fbab936111d101160791b602283015287516121b6816033850160208c01611b6c565b60339201918201527f2261747472696275746573223a207b22646973636f756e74223a200000000000603582015285516121f7816050840160208a01611b6c565b6c3e96101134b6b0b3b2911d101160991b6050929091019182015261223d61222b612225605d840188612099565b8661207d565b652e706e67227d60d01b815260060190565b98975050505050505050565b7f646174613a6170706c69636174696f6e2f6a736f6e3b6261736536342c00000081526000825161228181601d850160208701611b6c565b91909101601d0192915050565b6000828210156122a0576122a0611f91565b500390565b634e487b7160e01b600052601260045260246000fd5b600060ff8316806122ce576122ce6122a5565b8060ff84160691505092915050565b60208082526032908201527f4552433732313a207472616e7366657220746f206e6f6e20455243373231526560408201527131b2b4bb32b91034b6b83632b6b2b73a32b960711b606082015260800190565b600060001982141561234357612343611f91565b5060010190565b600082612359576123596122a5565b500490565b60008261236d5761236d6122a5565b500690565b600081600019048311821515161561238c5761238c611f91565b500290565b60006001600160a01b038087168352808616602084015250836040830152608060608301526123c36080830184611b98565b9695505050505050565b6000602082840312156123df57600080fd5b8151611b6581611b3256fe4f66667363726970742043726f776473656564204e46542e204f776e6564206279206561726c7920737570706f7274657273206f66204f6666736372697074202d20416e206f66667369746520666f722063726561746976657320696e20576562332e204f776e657273206f662074686973204e46542c20676574206120646973636f756e7420647572696e67207469636b65742073616c6568747470733a2f2f6f66667363726970742e776562336372656174697665732e636f6d2f4142434445464748494a4b4c4d4e4f505152535455565758595a6162636465666768696a6b6c6d6e6f707172737475767778797a303132333435363738392b2fa264697066735822122052c5e7eab98a409bf1a401bb2f6ce775308d1baeda504949c00eced1e643c91964736f6c634300080b0033",
  "devdoc": {
    "kind": "dev",
    "methods": {
      "approve(address,uint256)": {
        "details": "See {IERC721-approve}."
      },
      "balanceOf(address)": {
        "details": "See {IERC721-balanceOf}."
      },
      "getApproved(uint256)": {
        "details": "See {IERC721-getApproved}."
      },
      "name()": {
        "details": "See {IERC721Metadata-name}."
      },
      "owner()": {
        "details": "Returns the address of the current owner."
      },
      "ownerOf(uint256)": {
        "details": "See {IERC721-ownerOf}."
      },
      "renounceOwnership()": {
        "details": "Leaves the contract without owner. It will not be possible to call `onlyOwner` functions anymore. Can only be called by the current owner. NOTE: Renouncing ownership will leave the contract without an owner, thereby removing any functionality that is only available to the owner."
      },
      "safeTransferFrom(address,address,uint256)": {
        "details": "See {IERC721-safeTransferFrom}."
      },
      "safeTransferFrom(address,address,uint256,bytes)": {
        "details": "See {IERC721-safeTransferFrom}."
      },
      "setApprovalForAll(address,bool)": {
        "details": "See {IERC721-setApprovalForAll}."
      },
      "setBaseURI(string)": {
        "params": {
          "_newBaseURI": "new base URI for the token"
        }
      },
      "symbol()": {
        "details": "See {IERC721Metadata-symbol}."
      },
      "tokenURI(uint256)": {
        "details": "See {IERC721Metadata-tokenURI}."
      },
      "transferFrom(address,address,uint256)": {
        "details": "See {IERC721-transferFrom}."
      },
      "transferOwnership(address)": {
        "details": "Transfers ownership of the contract to a new account (`newOwner`). Can only be called by the current owner."
      }
    },
    "version": 1
  },
  "userdoc": {
    "events": {
      "BaseURIUpdated(string)": {
        "notice": "Emitted when the base URI changes"
      }
    },
    "kind": "user",
    "methods": {
      "admin()": {
        "notice": "Admin address"
      },
      "baseURI()": {
        "notice": "Base URI for all NFTs"
      },
      "isApprovedForAll(address,address)": {
        "notice": "Override isApprovedForAll to whitelist user's OpenSea proxy accounts to enable gas-less listings."
      },
      "setBaseURI(string)": {
        "notice": "Updates the base URIOnly callable by an authorized operator"
      }
    },
    "version": 1
  },
  "storageLayout": {
    "storage": [
      {
        "astId": 543,
        "contract": "contracts/OffscriptNFT.sol:OffscriptNFT",
        "label": "_name",
        "offset": 0,
        "slot": "0",
        "type": "t_string_storage"
      },
      {
        "astId": 545,
        "contract": "contracts/OffscriptNFT.sol:OffscriptNFT",
        "label": "_symbol",
        "offset": 0,
        "slot": "1",
        "type": "t_string_storage"
      },
      {
        "astId": 549,
        "contract": "contracts/OffscriptNFT.sol:OffscriptNFT",
        "label": "_owners",
        "offset": 0,
        "slot": "2",
        "type": "t_mapping(t_uint256,t_address)"
      },
      {
        "astId": 553,
        "contract": "contracts/OffscriptNFT.sol:OffscriptNFT",
        "label": "_balances",
        "offset": 0,
        "slot": "3",
        "type": "t_mapping(t_address,t_uint256)"
      },
      {
        "astId": 557,
        "contract": "contracts/OffscriptNFT.sol:OffscriptNFT",
        "label": "_tokenApprovals",
        "offset": 0,
        "slot": "4",
        "type": "t_mapping(t_uint256,t_address)"
      },
      {
        "astId": 563,
        "contract": "contracts/OffscriptNFT.sol:OffscriptNFT",
        "label": "_operatorApprovals",
        "offset": 0,
        "slot": "5",
        "type": "t_mapping(t_address,t_mapping(t_address,t_bool))"
      },
      {
        "astId": 53,
        "contract": "contracts/OffscriptNFT.sol:OffscriptNFT",
        "label": "_owner",
        "offset": 0,
        "slot": "6",
        "type": "t_address"
      },
      {
        "astId": 2272,
        "contract": "contracts/OffscriptNFT.sol:OffscriptNFT",
        "label": "traits",
        "offset": 0,
        "slot": "7",
        "type": "t_mapping(t_uint256,t_uint256)"
      },
      {
        "astId": 2275,
        "contract": "contracts/OffscriptNFT.sol:OffscriptNFT",
        "label": "baseURI",
        "offset": 0,
        "slot": "8",
        "type": "t_string_storage"
      },
      {
        "astId": 2281,
        "contract": "contracts/OffscriptNFT.sol:OffscriptNFT",
        "label": "remainingPublicSupply",
        "offset": 0,
        "slot": "9",
        "type": "t_uint8"
      },
      {
        "astId": 2283,
        "contract": "contracts/OffscriptNFT.sol:OffscriptNFT",
        "label": "remainingPrivateSupply",
        "offset": 1,
        "slot": "9",
        "type": "t_uint8"
      },
      {
        "astId": 2285,
        "contract": "contracts/OffscriptNFT.sol:OffscriptNFT",
        "label": "nextPrivateID",
        "offset": 2,
        "slot": "9",
        "type": "t_uint8"
      },
      {
        "astId": 2288,
        "contract": "contracts/OffscriptNFT.sol:OffscriptNFT",
        "label": "discounts",
        "offset": 0,
        "slot": "10",
        "type": "t_array(t_uint8)dyn_storage"
      },
      {
        "astId": 2291,
        "contract": "contracts/OffscriptNFT.sol:OffscriptNFT",
        "label": "availablePerTrait",
        "offset": 0,
        "slot": "11",
        "type": "t_array(t_uint8)dyn_storage"
      },
      {
        "astId": 2294,
        "contract": "contracts/OffscriptNFT.sol:OffscriptNFT",
        "label": "proxyRegistry",
        "offset": 0,
        "slot": "12",
        "type": "t_contract(IProxyRegistry)2232"
      },
      {
        "astId": 2297,
        "contract": "contracts/OffscriptNFT.sol:OffscriptNFT",
        "label": "admin",
        "offset": 0,
        "slot": "13",
        "type": "t_address"
      }
    ],
    "types": {
      "t_address": {
        "encoding": "inplace",
        "label": "address",
        "numberOfBytes": "20"
      },
      "t_array(t_uint8)dyn_storage": {
        "base": "t_uint8",
        "encoding": "dynamic_array",
        "label": "uint8[]",
        "numberOfBytes": "32"
      },
      "t_bool": {
        "encoding": "inplace",
        "label": "bool",
        "numberOfBytes": "1"
      },
      "t_contract(IProxyRegistry)2232": {
        "encoding": "inplace",
        "label": "contract IProxyRegistry",
        "numberOfBytes": "20"
      },
      "t_mapping(t_address,t_bool)": {
        "encoding": "mapping",
        "key": "t_address",
        "label": "mapping(address => bool)",
        "numberOfBytes": "32",
        "value": "t_bool"
      },
      "t_mapping(t_address,t_mapping(t_address,t_bool))": {
        "encoding": "mapping",
        "key": "t_address",
        "label": "mapping(address => mapping(address => bool))",
        "numberOfBytes": "32",
        "value": "t_mapping(t_address,t_bool)"
      },
      "t_mapping(t_address,t_uint256)": {
        "encoding": "mapping",
        "key": "t_address",
        "label": "mapping(address => uint256)",
        "numberOfBytes": "32",
        "value": "t_uint256"
      },
      "t_mapping(t_uint256,t_address)": {
        "encoding": "mapping",
        "key": "t_uint256",
        "label": "mapping(uint256 => address)",
        "numberOfBytes": "32",
        "value": "t_address"
      },
      "t_mapping(t_uint256,t_uint256)": {
        "encoding": "mapping",
        "key": "t_uint256",
        "label": "mapping(uint256 => uint256)",
        "numberOfBytes": "32",
        "value": "t_uint256"
      },
      "t_string_storage": {
        "encoding": "bytes",
        "label": "string",
        "numberOfBytes": "32"
      },
      "t_uint256": {
        "encoding": "inplace",
        "label": "uint256",
        "numberOfBytes": "32"
      },
      "t_uint8": {
        "encoding": "inplace",
        "label": "uint8",
        "numberOfBytes": "1"
      }
    }
  }
}