{
  "address": "0xBe2Ad7Aea60c1C29d10e07A03Fe56FC15e0493B4",
  "abi": [
    {
      "inputs": [
        {
          "internalType": "string",
          "name": "_uri",
          "type": "string"
        },
        {
          "internalType": "contract IOffscriptNFT",
          "name": "_address",
          "type": "address"
        },
        {
          "internalType": "contract IProxyRegistry",
          "name": "_proxyRegistry",
          "type": "address"
        }
      ],
      "stateMutability": "nonpayable",
      "type": "constructor"
    },
    {
      "anonymous": false,
      "inputs": [
        {
          "indexed": true,
          "internalType": "address",
          "name": "previousOwner",
          "type": "address"
        },
        {
          "indexed": true,
          "internalType": "address",
          "name": "newOwner",
          "type": "address"
        }
      ],
      "name": "OwnershipTransferred",
      "type": "event"
    },
    {
      "anonymous": false,
      "inputs": [
        {
          "indexed": true,
          "internalType": "address",
          "name": "from",
          "type": "address"
        },
        {
          "indexed": true,
          "internalType": "address",
          "name": "to",
          "type": "address"
        },
        {
          "indexed": true,
          "internalType": "uint256",
          "name": "tokenId",
          "type": "uint256"
        }
      ],
      "name": "Transfer",
      "type": "event"
    },
    {
      "inputs": [
        {
          "internalType": "uint256",
          "name": "_optionId",
          "type": "uint256"
        }
      ],
      "name": "canMint",
      "outputs": [
        {
          "internalType": "bool",
          "name": "",
          "type": "bool"
        }
      ],
      "stateMutability": "view",
      "type": "function"
    },
    {
      "inputs": [
        {
          "internalType": "address",
          "name": "_owner",
          "type": "address"
        },
        {
          "internalType": "address",
          "name": "_operator",
          "type": "address"
        }
      ],
      "name": "isApprovedForAll",
      "outputs": [
        {
          "internalType": "bool",
          "name": "",
          "type": "bool"
        }
      ],
      "stateMutability": "view",
      "type": "function"
    },
    {
      "inputs": [
        {
          "internalType": "uint256",
          "name": "_optionId",
          "type": "uint256"
        },
        {
          "internalType": "address",
          "name": "_toAddress",
          "type": "address"
        }
      ],
      "name": "mint",
      "outputs": [],
      "stateMutability": "nonpayable",
      "type": "function"
    },
    {
      "inputs": [],
      "name": "name",
      "outputs": [
        {
          "internalType": "string",
          "name": "",
          "type": "string"
        }
      ],
      "stateMutability": "view",
      "type": "function"
    },
    {
      "inputs": [],
      "name": "numOptions",
      "outputs": [
        {
          "internalType": "uint256",
          "name": "",
          "type": "uint256"
        }
      ],
      "stateMutability": "view",
      "type": "function"
    },
    {
      "inputs": [],
      "name": "owner",
      "outputs": [
        {
          "internalType": "address",
          "name": "",
          "type": "address"
        }
      ],
      "stateMutability": "view",
      "type": "function"
    },
    {
      "inputs": [
        {
          "internalType": "uint256",
          "name": "",
          "type": "uint256"
        }
      ],
      "name": "ownerOf",
      "outputs": [
        {
          "internalType": "address",
          "name": "_owner",
          "type": "address"
        }
      ],
      "stateMutability": "view",
      "type": "function"
    },
    {
      "inputs": [],
      "name": "renounceOwnership",
      "outputs": [],
      "stateMutability": "nonpayable",
      "type": "function"
    },
    {
      "inputs": [],
      "name": "supportsFactoryInterface",
      "outputs": [
        {
          "internalType": "bool",
          "name": "",
          "type": "bool"
        }
      ],
      "stateMutability": "pure",
      "type": "function"
    },
    {
      "inputs": [
        {
          "internalType": "bytes4",
          "name": "interfaceId",
          "type": "bytes4"
        }
      ],
      "name": "supportsInterface",
      "outputs": [
        {
          "internalType": "bool",
          "name": "",
          "type": "bool"
        }
      ],
      "stateMutability": "pure",
      "type": "function"
    },
    {
      "inputs": [],
      "name": "symbol",
      "outputs": [
        {
          "internalType": "string",
          "name": "",
          "type": "string"
        }
      ],
      "stateMutability": "view",
      "type": "function"
    },
    {
      "inputs": [
        {
          "internalType": "uint256",
          "name": "",
          "type": "uint256"
        }
      ],
      "name": "tokenURI",
      "outputs": [
        {
          "internalType": "string",
          "name": "",
          "type": "string"
        }
      ],
      "stateMutability": "view",
      "type": "function"
    },
    {
      "inputs": [
        {
          "internalType": "address",
          "name": "",
          "type": "address"
        },
        {
          "internalType": "address",
          "name": "_to",
          "type": "address"
        },
        {
          "internalType": "uint256",
          "name": "_tokenId",
          "type": "uint256"
        }
      ],
      "name": "transferFrom",
      "outputs": [],
      "stateMutability": "nonpayable",
      "type": "function"
    },
    {
      "inputs": [
        {
          "internalType": "address",
          "name": "newOwner",
          "type": "address"
        }
      ],
      "name": "transferOwnership",
      "outputs": [],
      "stateMutability": "nonpayable",
      "type": "function"
    }
  ],
  "transactionHash": "0xb528c26df289832085d1a56bb50424e547975376657373e85b76c10f254e5681",
  "args": [
    "https://ipfs.io/ipfs/QmSQpjJSKnjR9X23WaGp1gKo7ReteUMNri16Vru43pGGHC/default.png",
    "0xB670008779Cdc36f5B818F3Ba8Fe0A4bd324bFBE",
    "0xf57b2c51ded3a29e6891aba85459d600256cf317"
  ],
  "numDeployments": 1,
  "solcInputHash": "85ac2480a474ac01a28c6bc86262fb57",
  "bytecode": "0x60806040523480156200001157600080fd5b506040516200131238038062001312833981016040819052620000349162000236565b60016000556200004433620000a3565b8251620000599060029060208601906200015d565b50600380546001600160a01b038481166001600160a01b0319928316179092556004805484841692169190911790556001546200009a9160009116620000f5565b505050620003a0565b600180546001600160a01b038381166001600160a01b0319831681179093556040519116919082907f8be0079c531659141344cd1fd0a4f28419497f9722a3daafe3b4186f6b6457e090600090a35050565b60005b6001811015620001585780826001600160a01b0316846001600160a01b03167fddf252ad1be2c89b69c2b068fc378daa952ba7f163c4a11628f55a4df523b3ef60405160405180910390a4806200014f8162000339565b915050620000f8565b505050565b8280546200016b9062000363565b90600052602060002090601f0160209004810192826200018f5760008555620001da565b82601f10620001aa57805160ff1916838001178555620001da565b82800160010185558215620001da579182015b82811115620001da578251825591602001919060010190620001bd565b50620001e8929150620001ec565b5090565b5b80821115620001e85760008155600101620001ed565b634e487b7160e01b600052604160045260246000fd5b80516001600160a01b03811681146200023157600080fd5b919050565b6000806000606084860312156200024c57600080fd5b83516001600160401b03808211156200026457600080fd5b818601915086601f8301126200027957600080fd5b8151818111156200028e576200028e62000203565b604051601f8201601f19908116603f01168101908382118183101715620002b957620002b962000203565b81604052828152602093508984848701011115620002d657600080fd5b600091505b82821015620002fa5784820184015181830185015290830190620002db565b828211156200030c5760008484830101525b96506200031e91505086820162000219565b93505050620003306040850162000219565b90509250925092565b60006000198214156200035c57634e487b7160e01b600052601160045260246000fd5b5060010190565b600181811c908216806200037857607f821691505b602082108114156200039a57634e487b7160e01b600052602260045260246000fd5b50919050565b610f6280620003b06000396000f3fe608060405234801561001057600080fd5b50600436106100ea5760003560e01c80638da5cb5b1161008c578063c311c52311610066578063c311c523146101d3578063c87b56dd146101da578063e985e9c5146101ed578063f2fde38b1461020057600080fd5b80638da5cb5b146101a757806394bf804d146101b857806395d89b41146101cb57600080fd5b80634b97aed9116100c85780634b97aed9146101525780635dd871a3146101615780636352211e14610174578063715018a61461019f57600080fd5b806301ffc9a7146100ef57806306fdde031461012857806323b872dd1461013d575b600080fd5b6101136100fd366004610a49565b6001600160e01b031916631abf898b60e01b1490565b60405190151581526020015b60405180910390f35b610130610213565b60405161011f9190610aaa565b61015061014b366004610af2565b61028a565b005b6040516001815260200161011f565b61011361016f366004610b33565b610299565b610187610182366004610b33565b61031f565b6040516001600160a01b03909116815260200161011f565b610150610333565b6001546001600160a01b0316610187565b6101506101c6366004610b4c565b61039e565b6101306104a1565b6001610113565b6101306101e8366004610b33565b6104eb565b6101136101fb366004610b7c565b6106b6565b61015061020e366004610baa565b6107cb565b600354604080516306fdde0360e01b815290516060926001600160a01b0316916306fdde039160048083019260009291908290030181865afa15801561025d573d6000803e3d6000fd5b505050506040513d6000823e601f3d908101601f191682016040526102859190810190610bdd565b905090565b610294818361039e565b505050565b600060018210801561031957506003546040805163010042e160e41b815290516000926001600160a01b0316916310042e109160048083019260209291908290030181865afa1580156102f0573d6000803e3d6000fd5b505050506040513d601f19601f820116820180604052508101906103149190610c8a565b60ff16115b92915050565b60006103196001546001600160a01b031690565b6001546001600160a01b031633146103925760405162461bcd60e51b815260206004820181905260248201527f4f776e61626c653a2063616c6c6572206973206e6f7420746865206f776e657260448201526064015b60405180910390fd5b61039c6000610896565b565b600260005414156103f15760405162461bcd60e51b815260206004820152601f60248201527f5265656e7472616e637947756172643a207265656e7472616e742063616c6c006044820152606401610389565b60026000556103ff82610299565b6104395760405162461bcd60e51b815260206004820152600b60248201526a18d85b9b9bdd081b5a5b9d60aa1b6044820152606401610389565b60035460405163a06cb71960e01b81526001600160a01b0383811660048301529091169063a06cb71990602401600060405180830381600087803b15801561048057600080fd5b505af1158015610494573d6000803e3d6000fd5b5050600160005550505050565b600354604080516395d89b4160e01b815290516060926001600160a01b0316916395d89b419160048083019260009291908290030181865afa15801561025d573d6000803e3d6000fd5b60606000600360009054906101000a90046001600160a01b03166001600160a01b0316637284e4166040518163ffffffff1660e01b8152600401600060405180830381865afa158015610542573d6000803e3d6000fd5b505050506040513d6000823e601f3d908101601f1916820160405261056a9190810190610bdd565b600360009054906101000a90046001600160a01b03166001600160a01b03166306fdde036040518163ffffffff1660e01b8152600401600060405180830381865afa1580156105bd573d6000803e3d6000fd5b505050506040513d6000823e601f3d908101601f191682016040526105e59190810190610bdd565b600360009054906101000a90046001600160a01b03166001600160a01b0316638fc734846040518163ffffffff1660e01b8152600401600060405180830381865afa158015610638573d6000803e3d6000fd5b505050506040513d6000823e601f3d908101601f191682016040526106609190810190610bdd565b60026040516020016106759493929190610cad565b604051602081830303815290604052905061068f816108f5565b60405160200161069f9190610e1b565b604051602081830303815290604052915050919050565b6000826001600160a01b03166106d46001546001600160a01b031690565b6001600160a01b03161480156106fb5750816001600160a01b0316836001600160a01b0316145b1561070857506001610319565b826001600160a01b03166107246001546001600160a01b031690565b6001600160a01b03161480156107b557506004805460405163c455279160e01b81526001600160a01b0386811693820193909352848316929091169063c455279190602401602060405180830381865afa158015610786573d6000803e3d6000fd5b505050506040513d601f19601f820116820180604052508101906107aa9190610e60565b6001600160a01b0316145b156107c257506001610319565b50600092915050565b6001546001600160a01b031633146108255760405162461bcd60e51b815260206004820181905260248201527f4f776e61626c653a2063616c6c6572206973206e6f7420746865206f776e65726044820152606401610389565b6001600160a01b03811661088a5760405162461bcd60e51b815260206004820152602660248201527f4f776e61626c653a206e6577206f776e657220697320746865207a65726f206160448201526564647265737360d01b6064820152608401610389565b61089381610896565b50565b600180546001600160a01b0383811673ffffffffffffffffffffffffffffffffffffffff19831681179093556040519116919082907f8be0079c531659141344cd1fd0a4f28419497f9722a3daafe3b4186f6b6457e090600090a35050565b606081516000141561091557505060408051602081019091526000815290565b6000604051806060016040528060408152602001610eed60409139905060006003845160026109449190610e93565b61094e9190610eab565b610959906004610ecd565b67ffffffffffffffff81111561097157610971610bc7565b6040519080825280601f01601f19166020018201604052801561099b576020820181803683370190505b509050600182016020820185865187015b80821015610a07576003820191508151603f8160121c168501518453600184019350603f81600c1c168501518453600184019350603f8160061c168501518453600184019350603f81168501518453506001830192506109ac565b5050600386510660018114610a235760028114610a3657610a3e565b603d6001830353603d6002830353610a3e565b603d60018303535b509195945050505050565b600060208284031215610a5b57600080fd5b81356001600160e01b031981168114610a7357600080fd5b9392505050565b60005b83811015610a95578181015183820152602001610a7d565b83811115610aa4576000848401525b50505050565b6020815260008251806020840152610ac9816040850160208701610a7a565b601f01601f19169190910160400192915050565b6001600160a01b038116811461089357600080fd5b600080600060608486031215610b0757600080fd5b8335610b1281610add565b92506020840135610b2281610add565b929592945050506040919091013590565b600060208284031215610b4557600080fd5b5035919050565b60008060408385031215610b5f57600080fd5b823591506020830135610b7181610add565b809150509250929050565b60008060408385031215610b8f57600080fd5b8235610b9a81610add565b91506020830135610b7181610add565b600060208284031215610bbc57600080fd5b8135610a7381610add565b634e487b7160e01b600052604160045260246000fd5b600060208284031215610bef57600080fd5b815167ffffffffffffffff80821115610c0757600080fd5b818401915084601f830112610c1b57600080fd5b815181811115610c2d57610c2d610bc7565b604051601f8201601f19908116603f01168101908382118183101715610c5557610c55610bc7565b81604052828152876020848701011115610c6e57600080fd5b610c7f836020830160208801610a7a565b979650505050505050565b600060208284031215610c9c57600080fd5b815160ff81168114610a7357600080fd5b703d913232b9b1b934b83a34b7b7111d101160791b815284516000906020610cdb8260118601838b01610a7a565b61088b60f21b601192850192830181905268113730b6b2911d101160b91b60138401528751610d1081601c8601858c01610a7a565b601c9301928301819052701132bc3a32b93730b62fbab936111d101160791b601e8401528651610d4681602f8601858b01610a7a565b602f930192830152691134b6b0b3b2911d101160b11b60318301528454600090600181811c9080831680610d7b57607f831692505b858310811415610d9957634e487b7160e01b85526022600452602485fd5b808015610dad5760018114610dc457610df7565b60ff198516603b890152603b848901019550610df7565b60008b81526020902060005b85811015610dec5781548a8201603b0152908401908801610dd0565b5050603b8489010195505b5050505050610e0e8161227d60f01b815260020190565b9998505050505050505050565b7f646174613a6170706c69636174696f6e2f6a736f6e3b6261736536342c000000815260008251610e5381601d850160208701610a7a565b91909101601d0192915050565b600060208284031215610e7257600080fd5b8151610a7381610add565b634e487b7160e01b600052601160045260246000fd5b60008219821115610ea657610ea6610e7d565b500190565b600082610ec857634e487b7160e01b600052601260045260246000fd5b500490565b6000816000190483118215151615610ee757610ee7610e7d565b50029056fe4142434445464748494a4b4c4d4e4f505152535455565758595a6162636465666768696a6b6c6d6e6f707172737475767778797a303132333435363738392b2fa26469706673582212207783789bc65edce8dbc7daf0071f241ac37311f987263ad467a771c7c14f6fae64736f6c634300080b0033",
  "devdoc": {
    "kind": "dev",
    "methods": {
      "canMint(uint256)": {
        "details": "Returns whether the option ID can be minted. Can return false if the developer wishes to restrict a total supply per option ID (or overall)."
      },
      "mint(uint256,address)": {
        "details": "Mints asset(s) in accordance to a specific address with a particular \"option\". This should be callable only by the contract owner or the owner's Wyvern Proxy (later universal login will solve this). Options should also be delineated 0 - (numOptions() - 1) for convenient indexing.",
        "params": {
          "_optionId": "the option id",
          "_toAddress": "address of the future owner of the asset(s)"
        }
      },
      "owner()": {
        "details": "Returns the address of the current owner."
      },
      "renounceOwnership()": {
        "details": "Leaves the contract without owner. It will not be possible to call `onlyOwner` functions anymore. Can only be called by the current owner. NOTE: Renouncing ownership will leave the contract without an owner, thereby removing any functionality that is only available to the owner."
      },
      "supportsInterface(bytes4)": {
        "details": "See {IERC165-supportsInterface}."
      },
      "tokenURI(uint256)": {
        "details": "Returns a URL specifying some metadata about the option. This metadata can be of the same structure as the ERC721 metadata."
      },
      "transferOwnership(address)": {
        "details": "Transfers ownership of the contract to a new account (`newOwner`). Can only be called by the current owner."
      }
    },
    "version": 1
  },
  "userdoc": {
    "kind": "user",
    "methods": {
      "isApprovedForAll(address,address)": {
        "notice": "Hack to get things to work automatically on OpenSea. Use isApprovedForAll so the frontend doesn't have to worry about different method names."
      },
      "name()": {
        "notice": "Returns the name of this factory."
      },
      "numOptions()": {
        "notice": "Number of options the factory supports."
      },
      "ownerOf(uint256)": {
        "notice": "Hack to get things to work automatically on OpenSea. Use isApprovedForAll so the frontend doesn't have to worry about different method names."
      },
      "supportsFactoryInterface()": {
        "notice": "Indicates that this is a factory contract. Ideally would use EIP 165 supportsInterface()"
      },
      "symbol()": {
        "notice": "Returns the symbol for this factory."
      },
      "transferFrom(address,address,uint256)": {
        "notice": "Hack to get things to work automatically on OpenSea. Use transferFrom so the frontend doesn't have to worry about different method names."
      }
    },
    "version": 1
  },
  "storageLayout": {
    "storage": [
      {
        "astId": 161,
        "contract": "contracts/OpenSeaFactory.sol:OpenSeaFactory",
        "label": "_status",
        "offset": 0,
        "slot": "0",
        "type": "t_uint256"
      },
      {
        "astId": 53,
        "contract": "contracts/OpenSeaFactory.sol:OpenSeaFactory",
        "label": "_owner",
        "offset": 0,
        "slot": "1",
        "type": "t_address"
      },
      {
        "astId": 3236,
        "contract": "contracts/OpenSeaFactory.sol:OpenSeaFactory",
        "label": "uri",
        "offset": 0,
        "slot": "2",
        "type": "t_string_storage"
      },
      {
        "astId": 3239,
        "contract": "contracts/OpenSeaFactory.sol:OpenSeaFactory",
        "label": "nft",
        "offset": 0,
        "slot": "3",
        "type": "t_contract(IOffscriptNFT)3215"
      },
      {
        "astId": 3242,
        "contract": "contracts/OpenSeaFactory.sol:OpenSeaFactory",
        "label": "proxyRegistry",
        "offset": 0,
        "slot": "4",
        "type": "t_contract(IProxyRegistry)2232"
      }
    ],
    "types": {
      "t_address": {
        "encoding": "inplace",
        "label": "address",
        "numberOfBytes": "20"
      },
      "t_contract(IOffscriptNFT)3215": {
        "encoding": "inplace",
        "label": "contract IOffscriptNFT",
        "numberOfBytes": "20"
      },
      "t_contract(IProxyRegistry)2232": {
        "encoding": "inplace",
        "label": "contract IProxyRegistry",
        "numberOfBytes": "20"
      },
      "t_string_storage": {
        "encoding": "bytes",
        "label": "string",
        "numberOfBytes": "32"
      },
      "t_uint256": {
        "encoding": "inplace",
        "label": "uint256",
        "numberOfBytes": "32"
      }
    }
  }
}